S0150000616363657373436F6E74726F6C2E73726563BC
S11300000C942A000C943C000C943C000C943C008E
S11300100C943C000C943C000C943C000C943C006C
S11300200C943C000C94AA000C943C000C943C00EE
S11300300C943C000C9402010C942B010C943C0095
S11300400C943C000C943C000C943C000C943C003C
S11300500C943C0011241FBECFE5D8E0DEBFCDBF19
S113006020E0A0E6B0E001C01D92A93AB207E1F792
S11300700E9483000C94E2020C940000CF92DF9261
S1130080EF92FF921F93CF93DF93CDB7DEB72C97F8
S11300900FB6F894DEBF0FBECDBF0E94F5006B0112
S11300A07C0110E00EC00E949001892B51F00E9447
S11300B06401E1E0F0E0EC0FFD1FE10FF11D80832E
S11300C01F5F0E94F500DC01CB018C199D09AE096C
S11300D0BF0984369105A105B10528F31C3019F434
S11300E0CE01019602C080E090E02C960FB6F89401
S11300F0DEBF0FBECDBFDF91CF911F91FF90EF9078
S1130100DF90CF90089583E390E00E9450010E9415
S11301109F000E94CF007894E12CF12C0E943E00B5
S11301200097E1F38C01CE2DDF2DF80181918F0131
S11301300E947F012196CC30D105B9F7EFCF87B368
S11301408F7087BB87B3806B87BB81E58DB981E0F6
S11301508EB908951F920F920FB60F9211248F93A8
S11301609F93AF93BF938091600090916100A091A1
S11301706200B09163000196A11DB11D80936000DF
S113018090936100A0936200B0936300BF91AF911C
S11301909F918F910F900FBE0F901F901895F89418
S11301A01FBC85E08EBD84E089BF10926000109270
S11301B0610010926200109263001DBC1CBC789414
S11301C008952CB53DB58091600090916100A09197
S11301D06200B0916300DC0199278827BC01CD013E
S11301E0620F731F811D911D08950E94E1000E94FA
S11301F0C9012FE632E143E05EE30E942F020E9430
S11302009D0108951F920F920FB60F9211242F9300
S11302108F939F93EF93FF938BB12CB18871E091EF
S11302206600EF5FEF7190916500E91739F0E09394
S11302306600F0E0E759FF4F208301C082E080931D
S11302406400FF91EF919F918F912F910F900FBEBA
S11302500F901F9018951F920F920FB60F921124B2
S11302608F939F93EF93FF93909168008091670021
S1130270981761F0E0916700EF5FEF71E09367001A
S1130280F0E0E757FF4F80818CB901C05598FF918A
S1130290EF919F918F910F900FBE0F901F90189523
S11302A01092680010926700109266001092650028
S11302B099231CF422E02BB99F7790BD89B988E972
S11302C08AB986E880BD08959091660080916500A2
S11302D0981791F0E0916500EF5FEF71E09365008E
S11302E0F0E0E759FF4F20818091640090E0982F5F
S11302F08827820F911D089580E091E00895209150
S113030068002F5F2F71909167002917E1F3E22FA6
S1130310F0E0E757FF4F808320936800559A0895D3
S1130320809166002091650090E04F96821B9109B0
S11303306FE170E00E94BA02089570D088F09F5770
S113034090F0B92F9927B751A0F0D1F0660F771F1D
S1130350881F991F1AF0BA95C9F712C0B13081F0FD
S113036077D0B1E0089574C0672F782F8827B85FDD
S113037039F0B93FCCF3869577956795B395D9F75E
S11303803EF490958095709561957F4F8F4F9F4F68
S11303900895E89409C097FB3EF490958095709574
S11303A061957F4F8F4F9F4F9923A9F0F92F96E9BD
S11303B0BB279395F695879577956795B795F11132
S11303C0F8CFFAF4BB0F11F460FF1BC06F5F7F4FCF
S11303D08F4F9F4F16C0882311F096E911C07723E1
S11303E021F09EE8872F762F05C0662371F096E8EA
S11303F0862F70E060E02AF09A95660F771F881FB9
S1130400DAF7880F9695879597F9089557FD9058D0
S1130410440F551F59F05F3F71F04795880F97FBC4
S1130420991F61F09F3F79F087950895121613067E
S11304301406551FF2CF4695F1DF08C016161706AD
S11304401806991FF1CF86957105610508940895E2
S1130450E894BB2766277727CB0197F908950BD03B
S113046078C069D028F06ED018F0952309F05AC0EE
S11304705FC01124EECFCADFA0F3959FD1F3950F8F
S113048050E0551F629FF001729FBB27F00DB11D14
S1130490639FAA27F00DB11DAA1F649F6627B00DA4
S11304A0A11D661F829F2227B00DA11D621F739F8D
S11304B0B00DA11D621F839FA00D611D221F749F9B
S11304C03327A00D611D231F849F600D211D822FE2
S11304D0762F6A2F11249F5750408AF0E1F0882329
S11304E04AF0EE0FFF1FBB1F661F771F881F915036
S11304F05040A9F79E3F510570F014C0AACF5F3F4A
S1130500ECF3983EDCF3869577956795B795F79568
S1130510E7959F5FC1F7FE2B880F911D96958795F0
S113052097F9089597F99F6780E870E060E008956F
S11305309FEF80EC089500240A94161617061806F7
S11305400906089500240A941216130614060506D3
S11305500895092E0394000C11F4882352F0BB0F64
S113056040F4BF2B11F460FF04C06F5F7F4F8F4FC7
S11305709F4F089597FB072E16F4009407D077FD3C
S113058009D00E94CE0207FC05D03EF490958195D7
S11305909F4F0895709561957F4F0895AA1BBB1BCB
S11305A051E107C0AA1FBB1FA617B70710F0A61B6F
S11305B0B70B881F991F5A95A9F780959095BC0190
S10B05C0CD010895F894FFCF6A
S9030000FC
