:100000000C942A000C943C000C943C000C943C0092
:100010000C943C000C943C000C943C000C943C0070
:100020000C943C000C943C000C943C000C943C0060
:100030000C943C000C944C000C9475000C943C0007
:100040000C943C000C943C000C943C000C943C0040
:100050000C943C0011241FBECFE5D8E0DEBFCDBF1D
:1000600020E0A0E6B0E001C01D92A53AB207E1F79A
:100070000E943E000C940F010C94000083E390E07A
:100080000E949A0078940E94DA00892BE1F30E9482
:10009000AE000E94C900F7CF1F920F920FB60F92C9
:1000A00011242F938F939F93EF93FF938BB12CB1D8
:1000B0008871E0916200EF5FEF7190916100E91744
:1000C00039F0E0936200F0E0EB59FF4F208301C06C
:1000D00082E080936000FF91EF919F918F912F912B
:1000E0000F900FBE0F901F9018951F920F920FB692
:1000F0000F9211248F939F93EF93FF93909164003D
:1001000080916300981761F0E0916300EF5FEF71F9
:10011000E0936300F0E0EB57FF4F80818CB901C0A2
:100120005598FF91EF919F918F910F900FBE0F9077
:100130001F90189510926400109263001092620054
:100140001092610099231CF422E02BB99F7790BD97
:1001500089B988E98AB986E880BD089590916200DE
:1001600080916100981791F0E0916100EF5FEF716D
:10017000E0936100F0E0EB59FF4F20818091600037
:1001800090E0982F8827820F911D089580E091E0DC
:100190000895209164002F5F2F71909163002917BB
:1001A000E1F3E22FF0E0EB57FF4F808320936400F0
:1001B000559A0895809162002091610090E04F96D9
:1001C000821B91096FE170E00E94E700089597FBA0
:1001D000072E16F4009407D077FD09D00E94FB008B
:1001E00007FC05D03EF4909581959F4F089570953A
:1001F00061957F4F0895AA1BBB1B51E107C0AA1F41
:10020000BB1FA617B70710F0A61BB70B881F991FB7
:100210005A95A9F780959095BC01CD010895F89461
:02022000FFCF0E
:00000001FF
