:100000000C945D000C947A000C947A000C947A00A5
:100010000C947A000C947A000C947A000C947A0078
:100020000C947A000C9417010C947A000C947A00CA
:100030000C947A000C944E010C9477010C947A0085
:100040000C947A000C947A000C947A000C947A0048
:100050000C947A003C68313E524649443C2F68314A
:100060003E0D0A003C68746D6C3E3C626F64793EE4
:100070003C7370616E207374796C653D22636F6CA4
:100080006F723A23303030304130223E0D0A004842
:100090005454502F312E3020323030204F4B0D0A27
:1000A000436F6E74656E742D547970653A20746573
:1000B00078742F68746D6C0D0A0011241FBECFE593
:1000C000D8E0DEBFCDBF10E0A0E6B0E0E8EFF8E09A
:1000D00002C005900D92A636B107D9F722E0A6E638
:1000E000B0E001C01D92AF3AB207E1F70E948B0069
:1000F0000C947A040C940000FC012081222341F02E
:10010000319680E090E0019621912111FCCF089575
:1001100080E090E00895CF93DF93CDB7DEB763978B
:100120000FB6F894DEBF0FBECDBF83E390E00E9410
:100130009C010E940C01CE0101960E94B001CE01EB
:1001400001960E94F20120E530E041E060E0CE013E
:1001500001960E949D020E943C017894CE01019676
:100160000E946204009719F04797C9F04FC020E53C
:1001700030E041E060E0CE0101960E949D028823BC
:1001800069F360E0CE0101960E94E7028111E6CF9B
:100190008FEC97E00197F1F700C00000DFCFCE01B0
:1001A00001960E9448040097C9F29C0146E650E07F
:1001B00060E0CE0101960E94D603892B79F26FE8A8
:1001C00070E086E690E00E94730464E670E086E6E4
:1001D00090E00E94680464E570E086E690E00E948A
:1001E000680486E690E00E947C009C0146E650E0B0
:1001F00060E0CE0101960E941403892B09F4AECF72
:1002000060E0CE0101960E948902A8CF60E0CE0195
:1002100001960E947502A2CF87B38F7087BB87B308
:10022000806B87BB81E58DB981E08EB908951F92FF
:100230000F920FB60F9211248F939F93AF93BF939A
:100240008091660290916702A0916802B091690264
:100250000196A11DB11D8093660290936702A09341
:100260006802B0936902BF91AF919F918F910F90F7
:100270000FBE0F901F901895F8941FBC85E08EBD9F
:1002800084E089BF109266021092670210926802A1
:10029000109269021DBC1CBC789408951F920F92A5
:1002A0000FB60F9211242F938F939F93EF93FF9389
:1002B0008BB12CB18871E0916C02EF5FEF7190917E
:1002C0006B02E91739F0E0936C02F0E0E159FD4F61
:1002D000208301C082E080936A02FF91EF919F9199
:1002E0008F912F910F900FBE0F901F9018951F9216
:1002F0000F920FB60F9211248F939F93EF93FF935A
:1003000090916E0280916D02981761F0E0916D02FC
:10031000EF5FEF71E0936D02F0E0E157FD4F8081F8
:100320008CB901C05598FF91EF919F918F910F90DB
:100330000FBE0F901F90189510926E0210926D02D2
:1003400010926C0210926B0299231CF422E02BB9DC
:100350009F7790BD89B988E98AB986E880BD0895FC
:10036000CF93DF93EC0186E0E0E6F0E0DE0111964A
:1003700001900D928A95E1F73AE03F8320E12887CA
:1003800092E1998781E28A878FEF8B878C878D87AF
:100390001E863F87288B998B8AEF8A8BDF91CF91BE
:1003A0000895C4988FE08FB9779BFECF7FB9779B74
:1003B000FECF6FB9779BFECF1FB8779BFECFC49A55
:1003C0008FB10895C49880EF8FB9779BFECF7FB926
:1003D000779BFECF6FB9779BFECF4FB9779BFECF50
:1003E000C49A0895CF93DF93EC0140E860E070E099
:1003F0000E94E2014F8561E070E0CE010E94E201BF
:10040000488962E070E0CE010E94E201498963E020
:1004100070E0CE010E94E2014A8964E070E0CE0102
:100420000E94E201498169E070E0CE010E94E20190
:100430004A816AE070E0CE010E94E2014B816BE0EC
:1004400070E0CE010E94E2014C816CE070E0CE01D0
:100450000E94E2014D816DE070E0CE010E94E20158
:100460004E816EE070E0CE010E94E2014B8565E0B6
:1004700070E0CE010E94E2014C8566E070E0CE01A2
:100480000E94E2014D8567E070E0CE010E94E2012A
:100490004E8568E070E0CE010E94E2014F816FE07E
:1004A00070E0CE010E94E201488560E170E0CE017B
:1004B0000E94E201498561E170E0CE010E94E20103
:1004C0004A8562E170E0CE010E94E20145E06AE106
:1004D00070E0CE010E94E20145E06BE170E0CE01E8
:1004E0000E94E201DF91CF910895CF93DF93EC0159
:1004F00061110CC040E161E074E00E94E20161E042
:1005000074E0CE010E94D1018111F9CFDF91CF912A
:100510000895CF93DF93EC0161110CC048E061E0D6
:1005200074E00E94E20161E074E0CE010E94D1011A
:100530008111F9CFDF91CF910895FF920F931F930F
:10054000CF93DF93EC01F42E122F032F611136C0ED
:1005500063E074E00E94D101811104C060E0CE012B
:100560000E9475024F2D60E074E0CE010E94E2010E
:10057000402F64E074E0CE010E94E201412F65E06B
:1005800074E0CE010E94E20141E061E074E0CE013E
:100590000E94E20161E074E0CE010E94D10181116C
:1005A000F9CF63E074E0CE010E94D101833141F0C4
:1005B00060E0CE010E94750280E003C080E001C0CF
:1005C00081E0DF91CF911F910F91FF900895CF931C
:1005D000DF93EC01611120C063E074E00E94D1015F
:1005E0008331E1F442E061E074E0CE010E94E20177
:1005F00061E074E0CE010E94D1018111F9CF63E086
:1006000074E0CE010E94D101843151F060E0CE014E
:100610000E94750280E005C080E003C080E001C058
:1006200081E0DF91CF9108958F929F92AF92BF9218
:10063000CF92DF92EF92FF920F931F93CF93DF93AE
:10064000EC015A0169012115310509F46BC06111F2
:100650006CC060E274E00E94D101082F10E0102FFE
:10066000002761E274E0CE010E94D101080F111D44
:100670000C151D0508F472C05EC08FEC97E0019761
:10068000F1F700C0000060E274E0CE010E94D101E9
:10069000E82EF12CFE2CEE2461E274E0CE010E94E3
:1006A000D101F701E80FF11DCF010150110901152A
:1006B000110539F460E0CE010E94890280E090E0EB
:1006C00068C08C159D05C8F236C001501109B401EF
:1006D0007770705CF50141915F01CE010E94E201EB
:1006E000FFEF8F1A9F0A0115110579F7CE0CDF1C59
:1006F0004D2D64E274E0CE010E94E2014C2D65E2D2
:1007000074E0CE010E94E20140E261E074E0CE01BB
:100710000E94E20161E074E0CE010E94D1018111EA
:10072000F9CF06C080E090E034C080E090E031C0B6
:1007300081E090E02EC064E274E0CE010E94D1011D
:10074000E82E65E274E0CE010E94D101F12CFE2C6E
:10075000EE24E80EF11C47018601B7CF8FEC97E03D
:100760000197F1F700C0000060E274E0CE010E9442
:10077000D101082F10E0102F002761E274E0CE01B4
:100780000E94D101F801E80FF11DCF0109EE13E03D
:1007900098CFDF91CF911F910F91FF90EF90DF9055
:1007A000CF90BF90AF909F908F9008956F927F925F
:1007B0008F929F92AF92BF92CF92DF92EF92FF9271
:1007C0000F931F93CF93DF936C014A0159012115B9
:1007D000310509F44CC061114AC0213082E038076C
:1007E00060F531C02197B8017770705AC6010E9438
:1007F000D101F70181937F010F5F1F4F209791F780
:100800006A0C7B1CF401EA0DFB1D1082472D68E287
:1008100074E0C6010E94E201462D69E274E0C6015F
:100820000E94E20140E461E074E0C6010E94E2013E
:10083000FDE0FA95F1F700001AC00F2EFEEFAF2E83
:10084000BB24B394F02D68E274E0C6010E94D1018C
:10085000682E69E274E0C6010E94D101712C762CE9
:100860006624680E711C8301E5017401BBCF81E031
:1008700090E0DF91CF911F910F91FF90EF90DF906B
:10088000CF90BF90AF909F908F907F906F90089582
:100890001F93CF93DF93EC0166E274E00E94D101D5
:1008A000182F67E274E0CE010E94D101212F30E0C1
:1008B000322F2227A901480F511DCA01DF91CF9184
:1008C0001F91089563E074E00E94D10190E00895C3
:1008D000FB01DC010D900020E9F7119705900D92C6
:1008E0000020E1F70895FB01DC0105900D92002046
:0808F000E1F70895F894FFCF31
:0608F800001636DE58F682
:00000001FF
