:100000000C94D2020C9403030C9403030C9403038A
:100010000C9403030C9403030C9403030C94030348
:100020000C9403030C94251C0C944D1C0C94751C0F
:100030000C9403030C9403030C9403030C94030328
:100040000C9403030C9403030C9403030C94030318
:100050000C9403030C9403030C9403030C94E12A03
:100060000C9403030C941B2E0C94512E0C9403033C
:100070000C9403030C9403030C9403030C940303E8
:100080000C9403030C9403030C9403030C940303D8
:100090000C94C82E0C94FE2E0C9403030C940303B2
:1000A0000C9403030C9403030C9403030C940303B8
:1000B0000C9403030C9403030C9403030C940303A8
:1000C0000C9403030C9403030C9403030C94030398
:1000D0000C9403030C9403030C9403030C94030388
:1000E0000C940303FD2B002CEF2BF32BF92B372C57
:1000F000042C082C0E2C122C162C1C2C202C242CFE
:10010000372C2A2C2E2C322C0C9418140C94D11928
:100110000C944C110C94A8160C9449210C94B02208
:100120000C941C2C0C94EF190C94F92B0C94A02219
:100130000C94F32B0C94E9170C94BF140C949C11A1
:100140000C94FD220C94400F0C9423110C943A054E
:100150000C94082C0C94F40E0C94B4220C94322CB5
:100160000C9404210C94D6200C94320F0C94091793
:100170000C94E8130C94242C0C94FF0E0C9405039F
:100180000C94680F0C94C02C0C94FE110C9407195D
:100190000C942A2C0C9418180C94B80F0C94A123CE
:1001A0000C94D5110C949B200C946E0F0C941E2172
:1001B0000C944A160C941B140C9443150C942004B4
:1001C0000C94F3130C94CE220C9499220C94042CCE
:1001D0000C9417120C943B130C940E140C94061AE6
:1001E0000C94910F0C942A170C94E8140C94282F5B
:1001F0000C940E2C0C94900F0C94FB110C94F01793
:100200000C94E2170C94DD130C94E0220C947019FA
:100210000C943D100C94A72C0C94CE200C948322AB
:100220000C94230F0C94122C0C940C120C94742329
:100230000C941E220C94940F0C94752F0C946B0F3D
:100240000C94FE130C945F220C94D80F0C94D42CB5
:100250000C94322F0C940F050C942E2C0C949F0FA1
:100260000C940D0F0C94AE200C9401120C94CF132F
:100270000C94FB200C94C1210C94B22C0C940624F9
:100280000C9446150C948F0F0C94781A0C945A15F4
:100290000C9401140C944D0F0C94091A0C94AC207E
:1002A0000C9464240C945D0A0C947B2E0C94322DD7
:1002B0000C94202C0C94B8220C94171A0C94852EB4
:1002C0000C94E1200C943E230C945B230C941D10A1
:1002D0000C9422210C9415230C949D1C0C94FD2B42
:1002E0000C94EF2B0C9401230C94372C0C94D41702
:1002F0000C948E220C94C1150C94B5130C94E61733
:100300000C9449150C94180F0C9492070C94D02F50
:100310000C9440150C94D01C0C94D1170C94291DEE
:100320000C94B1130C94950F0C94E4160C94CF1408
:100330000C94F5220C94031A0C94162C0C94B820EF
:100340000C94EF2F0C94D2130C9445210C94EA11C9
:100350000C94AD0F0C94542D0C94002C0C9404149C
:100360000C94A20F0C944B0F0C94A9200C941F1A00
:100370000C94AA17434C4F5345440041542B514908
:10038000434C4F534500434F4E4E4543540D0A00D6
:1003900041542B51494F50454E3D0041542B51493A
:1003A000444E5349503D00434F4E4E4543540D0A71
:1003B00000434C4F5345440D0A0041542B514953BF
:1003C00045525645520041542B51494C504F5254BE
:1003D0003D22544350222C0041542B51494C4F4351
:1003E00049500041542B434D47443D0041542B4359
:1003F0004D474C3D2252454320554E5245414422E3
:100400002C310041542B434D47533D22002B434C8C
:1004100049503A0042555359004E4F2043415252E1
:10042000494552002B434F4C503A0052494E470029
:10043000415448004154410041542B434C43430034
:100440004154440000000A0B02090C0D0E0807037A
:100450000401000000000000000000000000000097
:10046000000000000000000000000000000000008C
:100470001211100000000000000000000000000049
:100480000000000000000000000001021020200811
:1004900008102040102040800201020108040201DF
:1004A000010204081020408080402010080402014E
:1004B00080040201804020100804020108040201A7
:1004C000010204081020408001020408102040802E
:1004D00005050505070508080808020202020A0AC0
:1004E00008080404040401010101010101010303DE
:1004F000030303030303040707070C0C0C0C0C0C89
:100500000C0C0202020206060606060606060B0B85
:100510000B0B0B0B0B0B0000200023002600290007
:100520002C002F0032000001000003010601090128
:1005300000002200250028002B002E00310034008E
:1005400002010000050108010B0100002100240048
:1005500027002A002D0030003300010100000401B3
:1005600007010A01050320040F053A059207F40E5E
:10057000FF0E0D0F180F230F320F400F4D0F3D10C0
:1005800001120C12B113D213DD13E813F313091A7D
:100590009D1CD01C291D9B2083228E226424852E25
:1005A000322FD02F11241FBECFEFD1E2DEBFCDBF3F
:1005B00000E00CBF14E0A0E0B2E0E8EFF9E600E0F4
:1005C0000BBF02C007900D92AA35B107D9F729E0F9
:1005D000AAE5B4E001C01D92A93DB207E1F715E01C
:1005E000C4EAD5E000E006C022970109FE010BBF76
:1005F0000E94D632C436D10780E00807A9F70E94CE
:10060000E02F0C94FA340C9400000F9300E020E0EB
:1006100040E060E086E794E00E94B92F88E694E02D
:100620000F910C94A72126E040E855E260E070E0CD
:1006300085E998E00E94B92D0E94C70385E794E000
:100640000E94520468E172E085E998E00E946230FD
:1006500064E272E085E998E00E94623040E95FE17F
:1006600067E772E088E694E00E9449210197B1F7BC
:100670006DE372E085E998E00E94623088E694E0DC
:100680000C941E22CF93DF93CDB7DEB762970FB6DF
:10069000F894DEBF0FBECDBF8AE594E00E94C90387
:1006A00080916704882309F469C06AE574E0CE018B
:1006B00007960E94393260E572E0CE0101960E94F1
:1006C0003932BE01695F7F4FCE0101960E949B3295
:1006D000BC01CE010D960E946632CE0101960E94A9
:1006E000CB31CE0107960E94CB3140E95FE167E74D
:1006F00072E088E694E00E94492164E572E088E6B1
:1007000094E00E943B30BE01635F7F4F88E694E037
:100710000E942D3067E672E088E694E00E94623025
:1007200061E772E088E694E00E94623063E872E07C
:1007300088E694E00E94623088E694E00E944E30A1
:1007400088E694E00E945F22882381F088E694E0A6
:100750000E94FB20892BA1F388E694E00E940421EB
:10076000682F85E998E00E943D30EACF88E694E062
:100770000E941E22CE010D960E94CB3162960FB6CA
:10078000F894DEBF0FBECDBFDF91CF91089581E019
:1007900008950F931F93CF93DF93EC0126E040E879
:1007A00055E260E070E082E399E00E94B92D44E1F7
:1007B00050E060E070E082E399E00E94A2314CE0FA
:1007C00050E0BE0182E399E00E94A8318C011D86B1
:1007D0001816190674F581E08D8765E972E085E9E0
:1007E00098E00E94623066EA72E085E998E00E9433
:1007F00062306DEA72E085E998E00E943B304AE0A1
:1008000050E0B80185E998E00E9431316CEB72E06C
:1008100085E998E00E943B30BE0185E998E00E949E
:10082000623065E972E085E998E00E94623081E01B
:1008300002C01D8680E0DF91CF911F910F91089536
:100840000F9300E020E040E060E08CE794E00E943D
:10085000B92F0F910895FF920F931F93CF93DF93BA
:10086000EB018B01F12CF80161918F0140E150E027
:1008700085E998E00E9456316DE873E085E998E0DB
:100880000E943B30F394F5E0FF12EDCF4AE050E0D8
:100890006D8185E998E0DF91CF911F910F91FF90D5
:1008A0000C945D31CF92DF92EF92FF920F931F93E2
:1008B000CF93DF93CDB7DEB768970FB6F894DEBF5E
:1008C0000FBECDBF6C0163EC72E085E998E00E9439
:1008D000623028E534E03A83298380918404909142
:1008E0008504A0918604B09187048B839C83AD839B
:1008F000BE8338872F8380918A0490918B04A091C6
:100900008C04B0918D0489879A87AB87BC873E871A
:100910002D878091900490919104A0919204B091C0
:1009200093048F87988BA98BBA8B3C8B2B8B409130
:1009300096045091970460919804709199044D8B9E
:100940005E8B6F8B788FCE0101967C018E01095FE3
:100950001F4F9E01235F3F4FAE014D5E5F4F6AE028
:1009600072E082E598E00E94F71F6CED72E085E985
:1009700098E00E943B306AE072E0C6010E942B04BE
:1009800063EE72E085E998E00E943B3062E578E032
:10099000C7010E944320B70185E998E00E947430A6
:1009A00069EE72E085E998E00E943B3062E578E00C
:1009B000C7010E948B20B70185E998E00E9474303E
:1009C00060EF72E085E998E00E943B3062E578E0F4
:1009D000C7010E947320B70185E998E00E94743036
:1009E0006BEF72E085E998E00E943B3062E578E0C9
:1009F000C7010E945B20B70185E998E00E9474302E
:100A000068960FB6F894DEBF0FBECDBFDF91CF91D1
:100A10001F910F91FF90EF90DF90CF9008950F936B
:100A200000E020E040E060E08AE994E00E94B92F15
:100A300001EB20EC43E06AE084E994E00E94B92FE6
:100A40000BE021E048EC6AE08EE894E00E94B92FC8
:100A50000AEF28EC43E06AE088E894E00E94B92FAE
:100A600000E020EE4FEF6FEF82E894E00E94B92F94
:100A70000F9108951092A5041092A6041092A90453
:100A80001092AB0482E090E0A0E0B0E08093AC0470
:100A90009093AD04A093AE04B093AF041092C3043E
:100AA0001092CD041092CC0489E093E09093CB0493
:100AB0008093CA041092CF0408959FB7F8942091B0
:100AC000440880914208213019F48DBB9FBF0895DE
:100AD0008FBF089520914408222399F03FB7F894DE
:100AE00020914408213059F42DB3209342084DB38E
:100AF00020914308209524232DBB3FBF02C0309393
:100B000042088CBD9DBD08958EBD00000DB407FE4A
:100B1000FDCF8EB508958FEF0C94840561E0FC0144
:100B200084810E94712C8091E904882339F010920D
:100B3000E9048091440881110C945D050895CF93D8
:100B4000DF93EC018091E904811109C081E0809379
:100B5000E9048091EA049091EB040E946A0560E048
:100B60008C81DF91CF910C94712CCF93DF93EC01AA
:100B70008E81882389F08F8198859C012F5F3F4F5C
:100B800038872F838230924018F40E948B05F3CF70
:100B9000CE010E948E051E82DF91CF9108950F93A2
:100BA0001F93CF93DF93EB010E942B2B8B010E94AD
:100BB0008B058F3F49F00E942B2B601B710B6C172C
:100BC0007D07A8F380E001C081E0DF91CF911F9104
:100BD0000F910895CF92DF92FF920F931F93CF93BF
:100BE000DF9300D01F92CDB7DEB76C01F62E2983BC
:100BF0003A834B835C830E94B505C6010E949F0522
:100C00006CE271E0C6010E94CF058F2D80640E94C6
:100C1000840508E110E05C814B813A812981DA0189
:100C2000C901002E04C0B695A795979587950A949B
:100C3000D2F729833A834B835C830E948405085052
:100C4000110929813A814B815C81083F8FEF180798
:100C500031F7FF2029F0E8E0FE1621F08FEF03C006
:100C600085E901C087E80E94840510E00E948B0599
:100C7000F601828787FF04C01F3F11F01F5FF6CF88
:100C80000F900F900F900F90DF91CF911F910F91C8
:100C9000FF90DF90CF9008950F931F93CF93DF9332
:100CA000EC010E942B2B8B010E948B058A878F3FC2
:100CB00049F40E942B2B601B710B6D327140A0F325
:100CC0008FE003C08E3F39F08DE08D83CE010E940E
:100CD0008E0580E001C081E0DF91CF911F910F91DF
:100CE0000895CF92DF92EF92FF920F931F93CF93CD
:100CF000DF93EC0169010115110509F462C0C80117
:100D0000820F931F8130924008F05DC08E8188234E
:100D100071F088819981AA81BB81481759076A07B8
:100D20007B0729F48F819885C816D90610F548836A
:100D300059836A837B838B85833039F039E0440F94
:100D4000551F661F771F3A95D1F79A01AB0161E1F4
:100D5000CE010E94EA05882319F083E08D8333C019
:100D6000CE010E944C06882371F118861F8281E013
:100D70008E838F8198858C159D0540F40E948B058C
:100D80008F819885019698878F83F3CF6701E00E56
:100D9000F11ECE14DF0431F00E948B05F601819321
:100DA0006F01F7CF8F819885800F911F98878F8370
:100DB0002985222319F08115924018F0CE010E9456
:100DC000B50581E004C0CE010E948E0580E0DF9170
:100DD000CF911F910F91FF90EF90DF90CF900895EA
:100DE000EF92FF920F931F93790100E012E020E051
:100DF00030E00E9471061F910F91FF90EF900895CF
:100E0000CF92DF92EF92FF920F931F93CF93DF93D6
:100E10001F921F92CDB7DEB78C01862F49835A836C
:100E20000E9484054981C42E5A81D52EE12CF12CD3
:100E3000F60181916F010E948405FFEFEF1AFF0A0E
:100E4000E11482E0F806A1F78FEF0E9484058FEF8E
:100E50000E9484050E948B05F80182878F7185307E
:100E600039F081E18583C8010E948E0580E001C0D0
:100E700081E00F900F90DF91CF911F910F91FF9024
:100E8000EF90DF90CF9008950F931F93CF93DF9350
:100E9000EC018901411551056105710511F482E1EB
:100EA00032C08B85833039F089E0440F551F661FAF
:100EB000771F8A95D1F79A01AB0168E1CE010E94B4
:100EC000EA05882311F084E01EC0A8016EEFCE0170
:100ED0000E9400078823C1F068E572E0CE010E94FD
:100EE000CF05811102C085E10EC020E030E0A901EC
:100EF0006DE0CE010E94EA05811104C00E948B05BD
:100F0000882339F084E18D83CE010E948E0580E034
:100F100004C0CE010E948E0581E0DF91CF911F9128
:100F20000F91089580E58093EA041092EB040895F0
:100F3000CF93DF93EC019C012A5F3F4F41E050E0EB
:100F400060E070E08B8D9C8D0E94090C8823A1F0DD
:100F50004F89588D698D7A8D452B462B472B71F41F
:100F60004E815F81688579854F8B588F698F7A8F25
:100F70008C8180688C8302C080E001C081E0DF91B9
:100F8000CF910895CF93DF93EC01462F6E857F8537
:100F9000888999890E94A90A882341F08A8920E2D8
:100FA000829FC00111248B509B4F02C080E090E0D3
:100FB000DF91CF9108954F925F926F927F92AF929F
:100FC000BF92CF92DF92EF92FF920F931F93CF9336
:100FD000DF93EC016A017B012D81222309F457C0C4
:100FE0008B899C89AD89BE8984179507A607B707A9
:100FF00008F44DC04EC08A859B85AC85BD85EB8DC0
:10100000FC8DE585F0E03996AC01BD0141505109F8
:10101000610971090E2E04C076956795579547951D
:101020000A94D2F79701860101501109210931096B
:1010300004C03695279517950795EA95D2F70417BA
:10104000150726073707B0F58F89988DA98DBA8DBA
:101050008E839F83A887B987280139015E0186E0C6
:10106000A80EB11C411451046104710461F14E8158
:101070005F816885798595018B8D9C8D0E94E40A3E
:1010800091E0491A5108610871088111EBCF80E0A5
:101090001FC02230C1F0C114D104E104F10409F0F1
:1010A000AACF1E821F82188619861A861B861C8666
:1010B0001D860DC0892B8A2B8B2B31F2041B150B3F
:1010C000260B370BC9CFCA86DB86EC86FD8681E00E
:1010D000DF91CF911F910F91FF90EF90DF90CF9014
:1010E000BF90AF907F906F905F904F9008950F9357
:1010F0001F93CF93DF93EC018D818823C9F18C81FD
:1011000087FF30C061E0CE010E94C2078C010097CA
:1011100079F18D81823048F44B895C896D897E89B3
:10112000F801448F558F668F778F4F89588D698D61
:101130007A8DF801538F428F758B648BE091EC04AC
:10114000F091ED04309759F0B8016A5E7F4FC80105
:1011500048961995F801808D918D938B828B8C81A7
:101160008F778C83DF91CF911F910F910C946E0A32
:1011700080E0DF91CF911F910F9108952F923F92C0
:101180004F925F926F927F928F929F92AF92BF9297
:10119000CF92DF92EF92FF920F931F93CF93DF9343
:1011A00000D01F921F92CDB7DEB78C017B013A01B0
:1011B000DC0115968C9115978130C9F414968C91A9
:1011C00081FF15C082FF1BC0F801438954896589DE
:1011D000768982859385A485B58584179507A607AA
:1011E000B70769F0C8010E94DB07811108C081E0E0
:1011F00090E0F8019383828380E090E046C1630130
:1012000080C0D8015B968D919C915C97FC01F48124
:10121000F150B501A40129E076956795579547955A
:101220002A95D1F7F423FD8321E09222FF2309F4CC
:1012300074C080E092E08819990956018C159D05CB
:1012400008F45C01D8015B96ED91FC915C971696D1
:101250002D903D904D905C901997B2E02B1A31087B
:1012600041085108058404C0220C331C441C551C41
:101270000A94D2F786859785A089B189280E391EF0
:101280004A1E5B1EED812E0E311C411C511CA11407
:10129000F2E0BF0609F088C080911002909111021F
:1012A000A0911202B091130282159305A405B50511
:1012B00059F48FEF9FEFDC0180931002909311029D
:1012C000A0931202B09313029701B201A101809181
:1012D000F3049091F4040E944407882309F487CF13
:1012E0009EEFF91ACA18DB08F80182859385A48558
:1012F000B5858A0D9B1DA11DB11D82879387A4878B
:10130000B587D8011A968D909D90AD90BC901D9791
:10131000C114D10409F075CF8AC08114910409F079
:1013200088CF16964D915D916D917C9119974115DD
:1013300051056105710559F457968D919D910D9058
:10134000BC91A02D0097A105B10541F521C09E01DA
:101350002F5F3F4F0E94E40A882309F44ECF898112
:101360009A81AB81BC81F801238D348DF9012789E5
:10137000203129F448EF5FEF60E070E004C048EFEF
:101380005FEF6FEF7FE084179507A607B70730F090
:10139000C8010E94980781114CCF29CFF80186839C
:1013A0009783A087B18745CF8114910429F5D8018F
:1013B0001A964D915D916D917C911D9753968D91EB
:1013C0009D910D90BC91A02D481759076A077B0786
:1013D00098F00E946E0A882309F409CF2092100227
:1013E0003092110240921202509213028091F20444
:1013F00081608093F20408C041E0C201B1010E9403
:10140000A90A882309F4F3CEC4018B509B4FD7015E
:101410009C012A0D3B1DFC01E217F30719F04D91C9
:101420004193FACFE81BF90BEE0EFF1E5BCF5396EC
:101430008D919D910D90BC91A02DF801248188156E
:101440009905AA05BB0538F4838A948AA58AB68AC9
:10145000206824830CC08091EC049091ED04892BCA
:1014600031F06114710419F02068F8012483D80167
:1014700014968C9183FD02C0C30107C0C8010E946D
:101480007708882309F4B3CEF7CF0F900F900F9011
:101490000F900F90DF91CF911F910F91FF90EF90E0
:1014A000DF90CF90BF90AF909F908F907F906F9084
:1014B0005F904F903F902F900895CF93DF931F92AE
:1014C000CDB7DEB7698341E050E0BE016F5F7F4F6B
:1014D0000E94BE080F90DF91CF9108958091F20491
:1014E000882399F1409110025091110260911202EB
:1014F0007091130225EF34E08091F3049091F4048D
:101500000E944407882319F14091EE045091EF04A2
:101510006091F0047091F104411551056105710568
:1015200091F025EF34E08091F3049091F4040E944F
:101530004407882361F01092EE041092EF04109299
:10154000F0041092F1041092F20481E0089580E01A
:101550000895CF92DF92EF92FF92CF936B017C01BF
:10156000C42F8091100290911102A0911202B091AB
:1015700013028C159D05AE05BF05D1F00E946E0AC1
:10158000811102C080E01AC025EF34E0B701A60146
:101590008091F3049091F4040E94F006882391F363
:1015A000C0921002D0921102E0921202F092130245
:1015B0008091F2048C2B8093F20481E0CF91FF9014
:1015C000EF90DF90CF9008958F929F92AF92BF924D
:1015D000CF92DF92EF92FF920F931F93CF93DF93FF
:1015E0008C016A017B01E901FC0181859285A3855B
:1015F000B4850196A11DB11D84179507A607B707ED
:1016000010F480E058C0F8014389548965897689CF
:101610008789803129F4BB27AF2D9E2D8D2D09C0E0
:10162000D701C60127E0B695A795979587952A9586
:10163000D1F74C015D01840E951EA61EB71EC50193
:10164000B4018090100290901102A0901202B0900C
:101650001302681579058A059B0589F4F8018789C5
:10166000803199F4DD24EE24FF24F601EE0FFF1FF4
:10167000EB50FB4F80819181A0E0B0E017C040E0CB
:101680000E94A90A8111EACFBCCFE894C7F8DD24F3
:10169000EE24FF24F601EE0FFF1FEE0FFF1FEB50AD
:1016A000FB4F80819181A281B381BF708883998330
:1016B000AA83BB8381E0DF91CF911F910F91FF90AF
:1016C000EF90DF90CF90BF90AF909F908F90089554
:1016D0004F925F926F927F928F929F92AF92BF9242
:1016E000CF92DF92EF92FF920F931F93CF93DF93EE
:1016F000EC016A017B012801390142305105610585
:10170000710508F474C049855A856B857C854F5FE7
:101710005F4F6F4F7F4F4C155D056E057F0508F4D9
:1017200066C08B889C88AD88BE888F89803129F4FB
:1017300077276F2D5E2D4D2D09C0B701A601E7E07B
:101740007695679557954795EA95D1F7840E951E3E
:10175000A61EB71E40911002509111026091120214
:101760007091130284169506A606B70671F48F8948
:10177000803199F4DD24EE24FF24F601EE0FFF1FE3
:10178000EB50FB4F5182408218C040E0C501B401CC
:101790000E94A90A8111EBCF2AC0E894C7F8DD2482
:1017A000EE24FF24F601EE0FFF1FEE0FFF1FEB509C
:1017B000FB4F40825182628273828091F204816089
:1017C0008093F2048A89823080F08D819E81AF817E
:1017D000B885880D991DAA1DBB1D8093EE049093BA
:1017E000EF04A093F004B093F10481E001C080E025
:1017F000DF91CF911F910F91FF90EF90DF90CF90ED
:10180000BF90AF909F908F907F906F905F904F9020
:1018100008952F923F924F925F926F927F929F9284
:10182000AF92BF92CF92DF92EF92FF920F931F93EE
:10183000CF93DF93CDB7DEB760970FB6F894DEBFD6
:101840000FBECDBF5C014D875E876F87788B190116
:10185000D9014D905D906D907C90411451046104CC
:10186000710431F0BFEF4B1A5B0A6B0A7B0A10C0A0
:10187000FC014080518062807380992493940D858F
:101880001E852F853889013011052105310509F0A4
:10189000912CD50119962D913D914D915C911C97FC
:1018A0002F5F3F4F4F4F5F4F29873A874B875C87AA
:1018B000730162011D821E821F821886F5018185D7
:1018C0009285A385B4850D811E812F8138850817E7
:1018D00019072A073B0708F056C029853A854B852A
:1018E0005C852C153D054E055F0550F4A2E0CA2E1F
:1018F000D12CE12CF12CB2E04B2E512C612C712C0F
:101900009E012F5F3F4FB701A601C5010E94E40A67
:101910008823C9F149815A816B817C81D701C60135
:101920000196A11DB11D452B462B472B19F02C010B
:101930003D010FC0AC01BD01441955096609770985
:101940000D851E852F85388940175107620773075B
:1019500079F02D813E814F8158852F5F3F4F4F4F4A
:101960005F4F2D833E834F8358876C017D01A6CF47
:101970000FEF1FEF2FEF3FE0B701A601C5010E9457
:10198000680B811118C080E041C0D701C6010197E2
:10199000A109B1098D839E83AF83B8879701860122
:1019A000AC01BD01C5010E94680B882361F3CD80A5
:1019B000DE80EF80F8844C145D046E047F0428F30D
:1019C000D1014D915D916D917C914115510561055C
:1019D000710599F4F10140825182628273829920EB
:1019E000A1F0FFEF4F1A5F0A6F0A7F0AD5014D92EF
:1019F0005D926D927C92139708C093018201C5019C
:101A00000E94680B8111E6CFBECF81E060960FB6D1
:101A1000F894DEBF0FBECDBFDF91CF911F910F9124
:101A2000FF90EF90DF90CF90BF90AF909F907F900E
:101A30006F905F904F903F902F900895FC0110821F
:101A40001182738362830895FC0181818F5F8F7798
:101A50009081891779F09181DF01A90FB11D14964A
:101A60006C93DF01A80FB11D14961C92818381E055
:101A700090E0089580E090E00895FC0190818181DC
:101A8000981759F08081DF01A80FB11D14968C9131
:101A900090819F5F9F779083089580E00895FC0177
:101AA00091818081891718F48181908103C081819F
:101AB00090818058891B90E0681779072CF4808109
:101AC000E80FF11D8481089580E00895FC012181D3
:101AD00020830895DF92EF92FF920F931F93CF938D
:101AE000DF93FB0150815523A1F1D12CE0E0F0E020
:101AF00034C0DD20D1F1A0E0D12CE0E0F0E05F5F68
:101B00005F77AA2341F1521731F1DC01A50FB11D16
:101B10001496CC91D0E0DB01AE0FBF1FAC91BB2778
:101B2000A7FDB095CA17DB0721F7D11001C0352FEB
:101B30003196DB01AE0FBF1FAC91A11112C0011590
:101B4000110511F0F8013083E114F10411F0F701EF
:101B5000508381E00DC04F5F4F77421741F0542F03
:101B6000D4CFA1E0DD24D394CACFA1E0C8CF80E0D8
:101B7000DF91CF911F910F91FF90EF90DF9008952B
:101B8000EF92FF920F931F93FC0121814081E12C82
:101B9000F12C00E010E00E946A0D1F910F91FF9060
:101BA000EF900895AF92BF92CF92DF92EF92FF92A3
:101BB0000F931F93CF93DF931F921F92CDB7DEB782
:101BC0006C01B42EA22EFC0121814081CE01019630
:101BD0007C018E010E5F1F4FC6010E946A0D882393
:101BE000B9F0AA2051F0BB2021F089818F5F8F7757
:101BF00001C08A81F601808307C0BB2039F089814A
:101C00008F5F8F77F601818381E003C08A81FACFED
:101C100080E00F900F90DF91CF911F910F91FF9077
:101C2000EF90DF90CF90BF90AF9008958F929F92EA
:101C3000AF92BF92CF92DF92EF92FF920F931F93DA
:101C4000CF93DF931F921F92CDB7DEB76C014A018D
:101C50005901FC0121814081CE0102967C0100E006
:101C600010E0C6010E946A0D811102C080E02AC006
:101C70004A814F5F4A83F6012181E12CF12C8E01CC
:101C80000F5F1F4FB401C6010E946A0D882371F3D4
:101C90009A8169816F7770E0F501AF014A195B099C
:101CA000292F30E02617370749F0D601A20FB31FBE
:101CB00014962C9121939F5F9F77EFCFF501E40F4E
:101CC000F51F10820F900F90DF91CF911F910F9110
:101CD000FF90EF90DF90CF90BF90AF909F908F904C
:101CE0000895FC0120812F5F50E030E080E090E01B
:101CF0006AE04181241709F1DF01A20FB11D14969A
:101D00004C91403219F4311105C014C04D3211F418
:101D1000332371F030ED340F3A3078F4DC016A9FF0
:101D2000C0016B9F900D1124840F911DC09701C0BD
:101D300051E031E02F5F2F77DCCF552319F09195DB
:101D4000819591090895CF93C82F80EE8C0F8F3520
:101D500010F46C2F0DC065E285E998E00E943D30DB
:101D60004AE050E06C2F85E998E00E94563165E228
:101D700085E998E0CF910C943D300F931F93CF935A
:101D8000DF93EC011881098185E998E00E944E30CB
:101D90004AE050E0612F85E998E00E94563161EEFB
:101DA00072E085E998E00E943B304AE050E0602F05
:101DB00085E998E00E9456316EE385E998E00E943B
:101DC0003D30101749F0FE01E10FF11D84810E94A2
:101DD000A30E1F5F1F77F5CF85E998E0DF91CF91C4
:101DE0001F910F910C944E300F9300E020E040E0E3
:101DF00060E087EF96E00E94B92F0F9108950F934E
:101E000000E020E040E060E08CE097E00E94B92F25
:101E10008DEF96E00F910C9427100F9300E020E0D7
:101E200040E060E082E197E00E94B92F0F910895B1
:101E30000F9300E020E040E060E088E197E00E943E
:101E4000B92F0F9108950F9300E020E040E060E08B
:101E500080E297E00E94B92F10921F0710921E0790
:101E60000F9108950F9300E020E040E060E08CE2E5
:101E700097E00E94B92F88E297E00F910C941E140E
:101E80000F9300E020E040E060E086E397E00E94EE
:101E9000B92F0F91089580E008950F9300E020E09E
:101EA00040E060E08CE397E00E94B92F0F91089525
:101EB00084E597E00E94441380915E0790E00895C6
:101EC000FB01DA0184918D9331968111FBCF089546
:101ED00080E090E0089580E090E008950F931F93D4
:101EE000CF93DF93D901EB010A811B812C813D81C6
:101EF000FC01018712872387348710925B071092B9
:101F00005A070190F081E02D0484F585E02D9D01B4
:101F100060E070E0DF91CF911F910F9119940895C7
:101F2000089580E090E00895089581E0209165078C
:101F3000309166072530310509F080E00895039659
:101F40000C94580F8091650790916607059721F4CE
:101F500086E597E00C943D30089580916507909157
:101F60006607059721F486E597E00C943B300895C9
:101F70008091650790916607059731F064E070E005
:101F800084E597E00E94B6128091870790918607BA
:101F9000891B8F7719F061E070E002C064E070E0A7
:101FA00084E597E00E94B61280915E0790E0089564
:101FB000FF920F931F93CF93DF93CDB7DEB72C978C
:101FC0000FB6F894DEBF0FBECDBF8C010D5F1F4F63
:101FD000AE014F5F5F4F64E773E0C8010E94600F7E
:101FE000FF24F39420916507309166072530310571
:101FF00009F0F12C20E040E0BE016F5F7F4F86E8E2
:1020000097E00E94D20DF82259F024E030E030939E
:10201000660720936507B80184E597E00E9468127F
:102020008F2D2C960FB6F894DEBF0FBECDBFDF917B
:10203000CF911F910F91FF90089560E070E086E8C6
:1020400097E00E944F0D992787FD90950895CF93B3
:10205000DF93EC018DE193E09983888387E493E03B
:102060009C838B83CE0107960E94AF2FD093F606F8
:10207000C093F506DF91CF9108950F9300E020E023
:1020800040E060E082E497E00E94B92F0F9108954C
:102090000F931F93CF93DF93CDB7DEB72D970FB676
:1020A000F894DEBF0FBECDBF8C0180915F078230F8
:1020B00001F118F4813041F0BBC0833009F467C0EE
:1020C000843009F479C0B4C040E06BE973E084E582
:1020D00097E00E94CE12E0915A07F0915B0730978B
:1020E00009F49AC0808180538A3008F495C061E376
:1020F00094C020E030E040E050E0BE01635F7F4FDD
:1021000084E597E00E948912882309F491C08D85A7
:102110008823D1F140E060E973E084E597E00E9414
:10212000CE126DE073E086E597E00E943B3060914F
:102130005A0770915B076115710529F086E597E0F4
:102140000E943B3006C066E577E0C80107960E9412
:10215000752F62E286E597E00E943D306CE286E5ED
:1021600097E00E943D3060915C0770915D074AE006
:1021700050E086E597E00E9429316DE086E597E022
:102180000E943D3083E015C063E070E040C020E075
:1021900030E040E050E0BE01635F7F4F84E597E0B0
:1021A0000E948912882309F443C08D85882361F336
:1021B00084E080935F073CC0AE014F5F5F4F66E8ED
:1021C00073E0C80103960E94600F20E030E0AE018A
:1021D0004F5F5F4FBE01635F7F4F84E597E00E94D2
:1021E0008912882329F18D85882371F285E090E09A
:1021F000909366078093650721E041E0BE016F5F21
:102200007F4F86E897E00E94D20D61E070E084E5A0
:1022100097E00E94B6120CC060E386E597E00E944A
:102220003D306DE086E597E00E943D3082E0C1CF11
:102230002D960FB6F894DEBF0FBECDBFDF91CF91C4
:102240001F910F9108950F931F93CF93DF93EC018C
:1022500050935D0740935C073E872D8770935B0723
:1022600060935A078C010D5F1F4F4EE050E0B8019C
:1022700084E597E00E945C13B80184E597E00E9432
:102280004A12CE010E94481080915E0790E0DF91D3
:10229000CF911F910F910895CF93DF93EC01239677
:1022A0004FE050E0BE0184E597E00E945C1368EEC9
:1022B00073E080E090E00E945A2B65E173E086E5D0
:1022C00097E00E943B3068EE73E080E090E00E946F
:1022D0005A2B41E06BE773E084E597E00E94CE1251
:1022E00084E090E0909366078093650786E897E026
:1022F0000E94660D83E797E00E94171A64E670E07B
:1023000080E090E00E945A2B61E070E084E597E065
:102310000E94B6128091870790918607891B8F775C
:1023200029F7BE0184E597E00E94681280915E075C
:1023300090E0DF91CF910895CF938091860790919F
:1023400087078150891B8F77B9F086E897E00E9454
:102350003D0DC82F90918607809187079150981B5B
:102360009F77943621F483E797E00E94171A8C2F09
:10237000992787FD909502C080E090E0CF91089565
:102380008091870790918607891B8F7741F086E8B7
:1023900097E00E94660D83E797E00C94171A61E0BE
:1023A00070E084E597E00C94B612209160073091BC
:1023B00061072E30310549F02331310541F02130DC
:1023C000310539F46093870708950C9448100C94F4
:1023D000C0110895CF93DF93EC01BC016D5F7F4F77
:1023E00043E150E084E597E00E945C13CE01DF9169
:1023F000CF910C94C01103970C94D80F03970C94B1
:10240000D5110F9300E020E040E060E088E497E021
:102410000E94B92F0F9108950F9300E020E040E053
:1024200060E08EE497E00E94B92F0F910895CF925B
:10243000DF92FF920F931F93CF93DF931F92CDB73D
:10244000DEB78C016B01F601F490FF2059F0D80142
:10245000ED91FC910280F381E02D6F2DC80149833D
:1024600019954981BFEFCB1ADB0AF110ECCF442359
:1024700031F066E873E0C80102960E943B3081E0CB
:1024800090E00F90DF91CF911F910F91FF90DF901F
:10249000CF900895FC0183899489892B59F085890F
:1024A0009689892B51F08789908D892B81F4A2E040
:1024B000B0E005C0A0E0B0E002C0A1E0B0E0AA0F2B
:1024C000BB1FAE0FBF1F54967C936E935397089516
:1024D000FC01838994898617970769F08589968915
:1024E0008617970759F08789908D8617970781F48B
:1024F000A2E0B0E005C0A0E0B0E002C0A1E0B0E022
:10250000AA0FBB1FAE0FBF1F54961C921E9253976B
:102510000895EF92FF920F931F93CF93DF938B0158
:10252000E9014115510531F4209721F4409114023D
:10253000509115027C0122E3E20EF11CBA01C701A1
:102540000E94C00DF8018083811108C0209731F0EE
:10255000BE01C7010E94C00DF801808381E0DF91B8
:10256000CF911F910F91FF90EF900895FC01613082
:10257000710531F08091600790916107029749F0F1
:10258000628781E090E095878487128E118E838721
:1025900008951092660710926507F2CF0F931F936C
:1025A000CF93DF9300D0CDB7DEB78C01C2964B83BB
:1025B00069837A830E94660DD801ED91FC910480B5
:1025C000F581E02D4B8169817A81C8010F900F90D0
:1025D0000F90DF91CF911F910F911994CF92DF92BD
:1025E000FF920F931F93CF93DF931F92CDB7DEB768
:1025F0008C01F62EC12CD12CF801EC0DFD1D838928
:102600009489009759F0DC01ED91FC910280F381EF
:10261000E02D6F2D49831995498101C080E0B4E018
:10262000CB16D10431F0E2E0CE0ED11C882321F389
:1026300019C0811117C0D80159968D919C915A9754
:10264000009781F0DC01ED91FC910190F081E02D8B
:102650006F2D0F90DF91CF911F910F91FF90DF9021
:10266000CF9019940F90DF91CF911F910F91FF9010
:10267000DF90CF900895FC012685222319F067870B
:10268000408B08950C94EE12CF93DF93EC018E856E
:10269000882379F09F858889981759F0CE01C296D2
:1026A0000E94BD0E48896F85CE010E94EE121F86E2
:1026B000188ADF91CF910895FC01728F618F128685
:1026C00081E08387558744871786108A0895CF92C3
:1026D000DF92EF92FF920F931F93CF93DF93EC0162
:1026E0000E942B2B6B017C010B8D1C8D2D8D3E8D43
:1026F000601B710B820B930BCB8EDC8EED8EFE8EEE
:10270000DF91CF911F910F91FF90EF90DF90CF90CD
:102710000895CF93DF93EC011D821C828FE493E038
:102720009983888389E593E09B838A83CE014F96C2
:102730000E94F01AD8A7CFA31F86188A81E08A8743
:102740001B8681E090E09D878C87CE010E946713F5
:102750001C8A1B8A1E8A1D8A188E1F8ADF91CF91C0
:10276000089584E597E00C9489130F931F93CF93FA
:10277000DF931F92CDB7DEB78C01FC0186858823DD
:1027800029F0862F69830E94A30E6981C8014F96A4
:102790000F90DF91CF911F910F910C941F1A029708
:1027A0000C94B5130F9300E020E040E060E08AE075
:1027B00098E00E94B92F0F9108950F9300E020E058
:1027C00040E060E080E198E00E94B92F0F91089509
:1027D0000F9300E020E040E060E086E198E00E9496
:1027E000B92F0F9108950F9300E020E040E060E0E2
:1027F0008CE198E00E94B92F0F91089580E090E05D
:10280000089580E090E0089581E02091650730917F
:1028100066072530310509F080E0089581E02091B8
:102820006507309166072530310509F080E008958D
:1028300080E090E0089502960C94580F21E633E072
:10284000FC013183208327E733E033832283909395
:1028500027078093260708950F931F93CF93DF9345
:1028600000D01F92CDB7DEB78C0180915F07823018
:1028700099F060F4813009F079C041E068ED73E0CF
:1028800084E597E00E94CE1282E034C08330C1F12B
:10289000843009F44EC06AC08DE089838AE08A835F
:1028A0001B8220E030E0AE014F5F5F4FBE016C5FE6
:1028B0007F4F84E597E00E948912882309F456C06F
:1028C0008C818823D1F040E066EC73E084E597E0EA
:1028D0000E94CE1260915C0770915D074AE050E063
:1028E00086E597E00E9429316DE086E597E00E9439
:1028F0003D3083E080935F0739C063E070E032C011
:1029000020E030E040E050E0BE016C5F7F4F84E5A6
:1029100097E00E948912882349F18C81882369F30A
:1029200041E06AEB73E084E597E00E94CE1284E018
:10293000E1CF20E030E040E050E0BE016C5F7F4F2F
:1029400084E597E00E948912882381F08C81882396
:10295000A1F2B8016E5F7F4F84E597E00E944A12B2
:1029600061E070E084E597E00E94B6120F900F904E
:102970000F900F90DF91CF911F910F9108952091AB
:102980006007309161072130310521F02431310594
:1029900021F008956093870708950C942C14CF9329
:1029A000DF93EC0170935D0760935C07BC016E5F81
:1029B0007F4F44E150E084E597E00E945C13CE0134
:1029C0000E942C1480915E0790E0DF91CF910895D2
:1029D0000F931F93CF93DF93CDB7DEB72F970FB62B
:1029E000F894DEBF0FBECDBF8C010E5F1F4FAE014E
:1029F0004F5F5F4F61EB73E0C8010E94600FBE0143
:102A00006F5F7F4F86E897E00E94C00D882331F00A
:102A100084E090E09093660780936507AE014F5F76
:102A20005F4F67EA73E0C8010E94600FBE016F5FED
:102A30007F4F86E897E00E94C00D8823A9F021E02F
:102A400041E0BE016F5F7F4F86E897E00E94D20DA4
:102A500083E797E00E94171A85E090E0909366075D
:102A60008093650781E001C080E02F960FB6F8944F
:102A7000DEBF0FBECDBFDF91CF911F910F910895A3
:102A800002970C94BF1402970C94E81402960C94CD
:102A9000580F0F931F939B018A0141E853E06BE7A6
:102AA00073E086E897E00E94160E81E090E01F91A7
:102AB0000F910895FC012681211109C021E0268390
:102AC00041E063E873E086E897E00E94D20D60E0A1
:102AD00070E086E897E00E944F0D992787FD90955A
:102AE000089520EA33E0FC013183208328EB33E0B2
:102AF0003383228390933307809332070895CF93D3
:102B0000DF931F92CDB7DEB780915F07813019F058
:102B10008230D1F032C082E080935F0740E063E012
:102B200074E084E597E00E94CE1260915A0770919C
:102B30005B0786E597E00E943B3065E873E086E539
:102B400097E00E943B3019C020E030E04EE452E0B4
:102B5000BE016F5F7F4F84E597E00E948912882352
:102B600061F08981882319F061E070E002C063E0C0
:102B700070E084E597E00E94B6120F90DF91CF914C
:102B80000895CF93DF93EC0120916507309166079C
:102B9000235031092230310518F082E090E013C053
:102BA00070935B0760935A07BC016E5F7F4F44E0F0
:102BB00050E084E597E00E945C13CE010E947F15EF
:102BC00080915E0790E0DF91CF9108950F931F935E
:102BD000CF93DF93EC018B0180918607909187075B
:102BE0008150891B8F7791E0853008F090E09F83BA
:102BF00021E041E068E873E086E897E00E94D20DAA
:102C0000811103C0F801108203C081E0F8018083C4
:102C100086E897E00E94710E9D838C836FE873E0D5
:102C200086E897E00E94C00D8887198681E0DF91D1
:102C3000CF911F910F910895CF93DF931F92CDB73E
:102C4000DEB720915F07213019F0223061F01EC0FD
:102C500041E06CEE73E084E597E00E94CE1282E0E2
:102C600080935F0713C0BE016F5F7F4F0E94E61520
:102C7000882361F08981811103C064E070E002C0A3
:102C800061E070E084E597E00E94B6120F90DF915A
:102C9000CF910895CF93DF93EC011E82BC016E5F4C
:102CA0007F4F46E050E084E597E00E945C13CE0140
:102CB0000E941C1680915E0790E0DF91CF910895ED
:102CC0000F931F93CF93DF931F92CDB7DEB78C0185
:102CD00080915F07813019F08230D9F033C082E0F3
:102CE00080935F0740E063EE73E084E597E00E9425
:102CF000CE12F801648175814AE050E086E597E0E4
:102D00000E94293166E873E086E597E00E943B3037
:102D100019C020E030E040E050E0BE016F5F7F4F1F
:102D200084E597E00E948912882361F089818823D5
:102D300019F061E070E002C063E070E084E597E0C4
:102D40000E94B6120F90DF91CF911F910F910895BD
:102D500084E597E00C94B513CF93DF931F92CDB722
:102D6000DEB780915F07813019F0823081F028C092
:102D700082E080935F076AE184E597E00E94B513E3
:102D800066E873E086E597E00E943B3019C020E0DA
:102D900030E040E050E0BE016F5F7F4F84E597E098
:102DA0000E948912882361F08981882319F061E0EB
:102DB00070E002C063E070E084E597E00E94B61224
:102DC0000F90DF91CF910895CF93DF93EC01BC0179
:102DD0006E5F7F4F45E050E084E597E00E945C1312
:102DE000CE010E94AC16E881F9810088F189E02DBE
:102DF000CE011995892B39F464E670E080E090E00B
:102E00000E945A2BF0CF80915E0790E0DF91CF9126
:102E10000895209160073091610725303105A1F0B8
:102E20003CF42130310559F02430310559F0089532
:102E30002630310559F02730310551F0089560935F
:102E4000870708950C947F150C94AC160C941C16EF
:102E50000C9460160F931F93CF93DF93EC018E8138
:102E600081110AC081E08E8321E041E063E873E0D4
:102E700086E897E00E94D20D86E897E00E943D0D1B
:102E8000082F8985882341F019866FE873E086E86A
:102E900097E00E94C00D8887888581112BC08F81A3
:102EA000882359F190918607809187079150981B4C
:102EB0009F77112707FD10959F3709F045C086E8D9
:102EC00097E00E94660D1F8281E08987BE016E5FD8
:102ED0007F4F40E050E084E597E00E945C1383E779
:102EE00097E00E94171A6AE070E080E090E00E948C
:102EF0005A2B2AC06FE873E002C065E973E086E8E8
:102F000097E00E94C00D81111AC086E897E00E94E8
:102F1000660DBE016E5F7F4F40E050E084E597E0B4
:102F20000E945C1383E797E00E94171A6AE070E042
:102F300080E090E00E945A2B80E090E006C0802F55
:102F4000992787FD909501C0C801DF91CF911F910E
:102F50000F9108950F931F93CF93DF938C01C5E0DA
:102F6000D0E086E897E00E94660D83E797E00E9434
:102F7000171A6AE070E080E090E00E945A2B2197D7
:102F800081F7B8016E5F7F4F47E050E084E597E03E
:102F90000E945C13C801DF91CF911F910F910C9497
:102FA000601602970C940917CF93DF93EC01E88128
:102FB000F9810684F785E02D19958E819F81DF9137
:102FC000CF910895FC0177836683089502960C944F
:102FD000580FBC016E5F7F4F84E597E00C944A1256
:102FE0000F931F93CF93DF93EC018B0140E060E4DC
:102FF00074E084E597E00E94CE12B80186E597E080
:103000000E943B306CEB73E086E597E00E943B301A
:10301000E881F9810484F585E02D61E070E0CE015E
:10302000199581E090E0DF91CF911F910F91089564
:10303000EF92FF920F931F93CF93DF93CDB7DEB73D
:103040002F970FB6F894DEBF0FBECDBF8C017C0169
:1030500082E0E80EF11CAE014F5F5F4F6BE274E05F
:10306000C7010E94600FBE016F5F7F4F86E897E047
:103070000E94C00D882349F0D801ED91FC91048491
:10308000F585E02D62E070E044C0AE014F5F5F4F18
:1030900064E274E0C7010E94600FBE016F5F7F4F62
:1030A00086E897E00E94C00D882349F0D801ED9191
:1030B000FC910484F585E02D63E070E02AC0AE0148
:1030C0004F5F5F4F69E174E0C7010E94600FBE016E
:1030D0006F5F7F4F86E897E00E94C00D811111C09D
:1030E000AE014F5F5F4F64E174E0C7010E94600F63
:1030F000BE016F5F7F4F86E897E00E94C00D882376
:1031000079F0D801ED91FC910484F585E02D60E023
:1031100070E0C801199586E897E00E94660D1FC00F
:10312000AE014F5F5F4F6DE074E0C7010E94600F1A
:10313000BE016F5F7F4F86E897E00E94C00D882335
:1031400081F086E897E00E94660DD801ED91FC9130
:103150000484F585E02D62E070E0C801199581E0F6
:1031600001C080E02F960FB6F894DEBF0FBECDBF32
:10317000DF91CF911F910F91FF90EF900895FC0187
:1031800086ED93E0918380838EEE93E09383828338
:1031900015821482F0933507E093340708950F9356
:1031A0001F939B018A0141E853E06FEB73E086E8CF
:1031B00097E00E94160E86E897E00E94660D81E077
:1031C0001F910F91089520915F07213019F022304F
:1031D00061F0089541E068E374E084E597E00E94BF
:1031E000CE1282E080935F070895FC0144815581EF
:1031F00060915A0770915B070E94CF18882331F0C5
:1032000061E070E084E597E00C94B61208950F93A6
:103210001F93CF93DF93EC0170935B0760935A0782
:103220005D834C830EE517E0F801108281E0809306
:103230005F07BE016E5F7F4F4BE050E084E597E093
:103240000E945C13CE010E94E318F801808190E097
:10325000DF91CF911F910F9108950F931F93CF93FB
:10326000DF931F92CDB7DEB78C0180915F0781306D
:1032700019F0823061F02EC041E064E374E084E52F
:1032800097E00E94CE1282E080935F0723C020E087
:1032900030E040E050E0BE016F5F7F4F84E597E093
:1032A0000E9489128823B1F0D801ED91FC91048429
:1032B000F585E02D63E070E0C801199589818823C8
:1032C00019F061E070E002C063E070E084E597E02F
:1032D0000E94B6120F90DF91CF911F910F91089528
:1032E0000F931F93CF93DF938C01CEE5D7E0188225
:1032F00081E080935F07B8016E5F7F4F49E050E047
:1033000084E597E00E945C13C8010E942D19888112
:1033100090E0DF91CF911F910F9108950F931F932C
:10332000CF93DF931F92CDB7DEB78C0180915F07FB
:10333000813019F0823061F02EC041E060E374E02A
:1033400084E597E00E94CE1282E080935F0723C05D
:1033500020E030E040E050E0BE016F5F7F4F84E549
:1033600097E00E9489128823B1F0D801ED91FC9179
:103370000484F585E02D60E070E0C801199589812D
:10338000882319F061E070E002C063E070E084E53A
:1033900097E00E94B6120F90DF91CF911F910F918D
:1033A00008950F931F93CF93DF938C01CEE5D7E061
:1033B000188281E080935F07B8016E5F7F4F4AE01B
:1033C00050E084E597E00E945C13C8010E948E19CA
:1033D000888190E0DF91CF911F910F910895209106
:1033E0006007309161072A30310541F02B303105FB
:1033F00039F02930310531F40C942D190C948E19C3
:103400000C94E318089502970C94181802970C94E2
:10341000EF190F9300E020E040E060E08CE298E0DC
:103420000E94B92F82E298E00F910C947115DC0193
:10343000ED91FC910280F381E02D61E11994CF932D
:10344000DF93EC0188899989892B59F1E881F98109
:103450000280F381E02D613151F467E7CE011995C7
:10346000E881F9810280F381E02D6EEE16C06331B0
:1034700051F467E7CE011995E881F9810280F38163
:10348000E02D6CEE0AC0CE01673741F41995E88152
:10349000F9810280F381E02D68E8CE01DF91CF91C0
:1034A000199480E090E0DF91CF910895DC011696A9
:1034B000ED91FC911797208115968C918095822330
:1034C0008083089520E001972FEF8F3F9207D9F76F
:1034D0000895611102C00C94561ADC011696ED9104
:1034E000FC911797208115968C91282B20830895A5
:1034F000DF92EF92FF920F931F93CF93DF93EC0134
:10350000D62EEFB6F8940E94561A888999890596A6
:103510000E94621A08E010E0FF24F3948F2D8D21A1
:1035200029F061E0CE010E94691A03C0CE010E9419
:10353000561A888999890E94621AFF0C0150110954
:1035400069F761E0CE010E94691AEFBE8889998906
:103550000E94621A81E090E0DF91CF911F910F915C
:10356000FF90EF90DF900895CF93DF93EC0161E03F
:1035700083E00E94382C61E083E00E94712CEDE82A
:10358000F4E0E491ED83E3EDF4E0E491F0E0EE0F9C
:10359000FF1FE05DFA4F859194919F838E83DF91A9
:1035A000CF910895CF93DF93EC0160E08AE00E9411
:1035B000382C61E08AE00E94712CE4E9F4E0E491A7
:1035C000EA83EAEDF4E0E491F0E0EE0FFF1FEA5E3B
:1035D000FA4F859194919C838B83DF91CF910895CD
:1035E000CF93DF93EC0186EF93E0998388831B866A
:1035F0001A861D861C861F861E86198A188ABE0199
:10360000CE0143960E941E0DCE010E94B41ACE0137
:10361000DF91CF910C94D21AFC01DB018C9192893D
:103620008F3F31F491FF0AC082E08927828B04C06A
:10363000873721F49160928B80E0089590FF10C04D
:103640008E3E11F481E107C08C3E11F483E103C08A
:10365000883811F487E78C93828991E08927828BDF
:1036600081E008957F928F929F92AF92BF92CF9206
:10367000DF92EF92FF920F931F93CF93DF931F92EE
:10368000CDB7DEB78C012F933F934F935F936F932A
:103690007F93AF93BF931982DC011396ED91FC9158
:1036A0001497808112969C91892309F08BC0912CEC
:1036B000882483946801B3E1CB0ED11CF80184897E
:1036C000828593850E94621AD80153968C915397F4
:1036D00054969C918150891B8F77AA24A39486309D
:1036E00010F0A12C05C0911003C0C8010E94561A09
:1036F00038E0E32EF12C77247394F80184859585C6
:103700000E94621AD8011396ED91FC911497808162
:1037100012969C9189239981882319F0972999837E
:1037200004C0872D809589238983AA2069F0911090
:103730000BC0872D837129F061E0C8010E94691ACE
:1037400003C0C8010E94561A770CB1E0EB1AF108C9
:10375000A1F6AA2009F459C0911009C0F801848586
:1037600095850E94621A61E0C8010E94691AF801F9
:1037700082898260828B99249394BE016F5F7F4F10
:10378000C8010E940C1B811134C022E3E22EF12CEF
:1037900081E090E00E94621AD8011396ED91FC91AD
:1037A0001497808112969C91892309F487CFB1E008
:1037B000EB1AF10869F7A11030C089818A3069F1EC
:1037C000803259F1BF91AF917F916F915F914F918D
:1037D0003F912F910F90DF91CF911F910F91FF900B
:1037E000EF90DF90CF90BF90AF909F908F907F90A1
:1037F00008956981C6010E94240D882009F4C5CF6F
:10380000D8015496BC90812CC0CFD8011E968D91C2
:103810009C911F970E94621AB0CFF8018085918514
:10382000009781F24489DC01ED91FC910190F081D7
:10383000E02D6B2D1995C6CF8091320890913308F9
:10384000009711F00C94321B08951F920F920FB63F
:103850000F9211240BB60F922F933F934F935F93C8
:103860006F937F938F939F93AF93BF93EF93FF9348
:103870000E941C1CFF91EF91BF91AF919F918F917E
:103880007F916F915F914F913F912F910F900BBE60
:103890000F900FBE0F901F9018951F920F920FB6AA
:1038A0000F9211240BB60F922F933F934F935F9378
:1038B0006F937F938F939F93AF93BF93EF93FF93F8
:1038C0000E941C1CFF91EF91BF91AF919F918F912E
:1038D0007F916F915F914F913F912F910F900BBE10
:1038E0000F900FBE0F901F9018951F920F920FB65A
:1038F0000F9211240BB60F922F933F934F935F9328
:103900006F937F938F939F93AF93BF93EF93FF93A7
:103910000E941C1CFF91EF91BF91AF919F918F91DD
:103920007F916F915F914F913F912F910F900BBEBF
:103930000F900FBE0F901F9018950F9300E020E09E
:1039400040E060E08CE398E00E94B92F84E398E0C7
:103950000F910C94BF18CF93CFB7F894809145087E
:10396000811116C061E085E30E94712C61E085E35E
:103970000E94382C8CB580618CBD8CB580648CBD68
:1039800061E084E30E94382C61E083E30E94382CDC
:10399000809145088F5F80934508CFBFCF910895F0
:1039A0000F9300E020E040E060E086E498E00E94B1
:1039B000B92F0F910895FB01428153816481758174
:1039C000FC014283538364837583178216820895B2
:1039D000CF93FB0181918111FDCFFB0180E090E04D
:1039E00020E030E0CAE06191662309F1243031051E
:1039F00064F56E3271F48F3F910509F034F5DA0108
:103A0000A20FB31F12968C932F5F3F4F80E090E080
:103A1000EACFDC01CA9FC001CB9F900D112477270C
:103A200067FD709560537109860F971FDCCF8F3F3C
:103A3000910509F054F4243031053CF4FA01E20F09
:103A4000F31F828381E090E002C080E090E0CF919C
:103A500008950F9300E020E040E060E08CE498E0FF
:103A60000E94B92F0F910895AF92BF92CF92DF922B
:103A7000EF92FF920F931F93CF93DF9300D0CDB7B8
:103A8000DEB76C017B010E942B2BF60177836683E6
:103A90008601085F1F4FB6016A5F7F4F42E050E02A
:103AA000C8010E94012381E090E09A83898342E06B
:103AB00050E0BE016F5F7F4FC8010E94012380E08C
:103AC00091E09A83898342E050E0BE016F5F7F4FAF
:103AD000C8010E9401231A82198242E050E0BE010F
:103AE0006F5F7F4FC8010E94012342E050E0BE019A
:103AF0006F5F7F4FC8010E94012342E050E0BE018A
:103B00006F5F7F4FC8010E9401236701F60180812A
:103B1000882311F1F7016F018191811115C05601C0
:103B2000AE18BF081A141B0494F4AB8241E050E0B5
:103B3000BE016D5F7F4FC8010E940123A501B7013F
:103B4000C8010E94012303C08E3229F7E8CF760115
:103B5000FFEFEF1AFF0ADACF1B8241E050E0BE010F
:103B60006D5F7F4FC8010E940123E12CFF24F39475
:103B7000FA82E98242E050E0BE016F5F7F4FC801E8
:103B80000E940123FA82E98242E050E0BE016F5FA9
:103B90007F4FC8010E94012381E090E00F900F90B9
:103BA0000F90DF91CF911F910F91FF90EF90DF90D9
:103BB000CF90BF90AF9008954F925F926F927F9297
:103BC0008F929F92AF92BF92CF92DF92EF92FF922D
:103BD0000F931F93CF93DF93CDB7DEB763970FB6E5
:103BE000F894DEBF0FBECDBF7C015B016A010E946D
:103BF0002B2B2B013C018701085F1F4F4501A12C96
:103C0000B12CC8010E94A1231816190694F00E9435
:103C10002B2B641975098609970986169706A8063D
:103C2000B906D0F062E370E080E090E00E945A2B89
:103C3000E8CFF7014281538164817581818D928D36
:103C4000A38DB48D481759076A077B0741F4858D0A
:103C5000968DC59721F406C08FEF9FEFF9C08EEFC8
:103C60009FEFF6C0C8010E94B4220C970CF4EEC07E
:103C70004CE050E0BE016F5F7F4FC8010E943E23C1
:103C80008B819C819827892798279A8B898BF701AC
:103C90004681578129813A814217530711F497FDD4
:103CA00006C0C8010E94CE228CEF9FEFD1C08F705A
:103CB0009270892B31F0C8010E94CE228BEF9FEFCA
:103CC000C7C0AF80B884BA24AB24BA24A114B1040D
:103CD00019F0E12CF12C23C0C8010E94CE228AEFFA
:103CE0009FEFB6C041E050E0BE01635F7F4FC80167
:103CF0000E943E238D8581111BC08D858111F2CFDD
:103D0000C8010E941523C8010E941523C8010E9402
:103D10001523C8010E941523FFEFEF1AFF0A8D81BA
:103D20009E81982789279827E816F906D8F20AC0B5
:103D30008D859FEF980F9D878823F9F2C8010E9417
:103D40001523F6CFE12CF12C41E050E0BE016D5E71
:103D50007F4FC8010E943E238B89982F907C61F48D
:103D6000882371F08B899FEF980F9B8B882341F0FC
:103D7000C8010E941523F6CFC8010E9415231B8A93
:103D80008B898111E1CF42E050E0BE01615F7F4F3E
:103D9000C8010E943E2342E050E0BE01635F7F4FB6
:103DA000C8010E943E23C8010E941523C8010E9439
:103DB0001523C8010E941523C8010E94152342E063
:103DC00050E0BE016F5E7F4FC8010E943E238F8589
:103DD00098898115914029F48D859E8581159140A2
:103DE00019F0812C912C16C089899A8981159440EB
:103DF00031F0C8010E94CE2287EF9FEF29C0B601A3
:103E00006E5F7F4F44E050E0C8010E943E2381E096
:103E100090E01EC089899A89982789279827881653
:103E2000990638F4C8010E9415232FEF821A920ACE
:103E3000F1CF8FEFE81AF80AEA14FB0409F084CFF7
:103E4000C8010E94CE2286EF9FEF02C08DEF9FEF48
:103E500063960FB6F894DEBF0FBECDBFDF91CF9152
:103E60001F910F91FF90EF90DF90CF90BF90AF9098
:103E70009F908F907F906F905F904F9008958F925A
:103E80009F92AF92BF92CF92DF92EF92FF920F93E9
:103E90001F93CF93DF9300D000D0CDB7DEB78C0156
:103EA0005B016A010E94E81C4C01009709F05DC0AB
:103EB000F801428153816481758180914E0890910F
:103EC0004F08A0915008B0915108481759076A0748
:103ED0007B0709F44EC00E942B2B7801F8E0EF0E0F
:103EE000F11C6F7077277C5FC7010E9474238130BB
:103EF00009F043C088E594E09A838983F8018281C0
:103F00009381A481B5818B839C83AD83BE8345E37C
:103F100050E0BE016F5F7F4FC7010E94F522892BE1
:103F200019F4812C912C1DC0B501C8010E94341DCB
:103F3000892BB9F3C7010E94FD22892B91F333E04D
:103F4000A32EB12CA60168E873E1C8010E94DC1D14
:103F50004C01F1E0AF1AB10821F08F3F2FEF92072B
:103F600089F3C7010E94E02208C088248394912C21
:103F700004C09EEF892E99249A94C40126960FB608
:103F8000F894DEBF0FBECDBFDF91CF911F910F918F
:103F9000FF90EF90DF90CF90BF90AF909F908F9069
:103FA000089580914408882361F09FB7F894209188
:103FB000440880914208213019F48DBB9FBF0895B9
:103FC0008FBF089544E050E0BC0181E090E00C9484
:103FD000D62844E050E0BC0185E090E00C94D6285F
:103FE00044E050E0BC018FE090E00C94D6288F9222
:103FF0009F92AF92BF92CF92DF92EF92FF920F9378
:104000001F93CF93DF931F921F92CDB7DEB74C0162
:104010006A0159018CE798E069837A830E946E28CF
:1040200080E590E00E946A0546E050E069817A816F
:1040300089E090E00E94D628C60102960E94F01FF7
:10404000C80102960E94E21FC70102960E94E91F62
:104050000E94D11FF5014281538164817581F40171
:1040600042835383648375830F900F90DF91CF91C8
:104070001F910F91FF90EF90DF90CF90BF90AF9086
:104080009F908F900895CF93DF93EC010E94AF2F04
:1040900080E590E00E946A05BE016E5F7F4F44E0BC
:1040A00050E08FE090E00E94072A0E94D11FCE01CD
:1040B000DF91CF910895CF93DF93EC010E94AF2F52
:1040C00080E590E00E946A05BE016E5F7F4F44E08C
:1040D00050E085E090E00E94072A0E94D11FCE01A7
:1040E000DF91CF910895CF93DF93EC010E94AF2F22
:1040F00080E590E00E946A05BE016E5F7F4F44E05C
:1041000050E081E090E00E94072A0E94D11FCE017A
:10411000DF91CF91089528E534E0FC0131832083BD
:10412000FB014281538164817581FC014283538389
:104130006483758308950F9300E020E040E060E021
:1041400082E698E00E94B92F82E598E00F910C94E6
:10415000AF2F81E086270895862F0895DC01ED9129
:10416000FC91048CF58DE02D199591E08927089537
:10417000CF93DF931F92CDB7DEB76983DC01ED915A
:10418000FC910280F381E02D41E050E0BE016F5FC1
:104190007F4F19950F90DF91CF91089521E0FC0199
:1041A0008485843009F420E0822F0895FC019485F1
:1041B000FB018485981303C081E0943009F480E00A
:1041C00008950F931F93CF93DF93EC018A018C85A1
:1041D000843021F00E941226892B39F481E090E08E
:1041E0009B838A8380E090E001C0C801DF91CF917A
:1041F0001F910F910895FC018485843011F00C9477
:10420000092780E090E00895CF93DF931F92CDB708
:10421000DEB741E050E0BE016F5F7F4FFC01848557
:104220000E94A826181619061CF4898190E002C085
:104230008FEF9FEF0F90DF91CF910895FC01848560
:104240000C94A8260F931F93CF93DF931F92CDB7A3
:10425000DEB78C01DC01ED91FC910480F581E02D4D
:104260001995892B51F0BE016F5F7F4FF80184854E
:104270000E943427898190E002C08FEF9FEF0F905A
:10428000DF91CF911F910F910895FC0184850C94CB
:104290006427CF92DF92EF92FF920F931F93CF93F9
:1042A000DF93CDB7DEB7AF970FB6F894DEBF0FBE82
:1042B000CDBF7C018B016A01CE0101960E94AF2F18
:1042C000CE0109960E94F123CE018A960E94AF2F5B
:1042D00062E578E0CE0184960E948B20BE016C5D81
:1042E0007F4FCE0101960E94DB1CAE01465D5F4F01
:1042F000B801CE0101960E943F1F81309105C1F4A3
:10430000D701ED91FC910484F585E02D88E594E0DA
:104310009DA38CA30CA51DA52EA53FA50EA31FA391
:1043200028A739A7A601BE016C5D7F4FC70119956B
:10433000AF960FB6F894DEBF0FBECDBFDF91CF9121
:104340001F910F91FF90EF90DF90CF900895FC01A7
:104350001382128248EE53E060E070E0448355839C
:104360006683778380E094E09183808384E0848710
:104370000895FC018485843011F00C94EB2480E0D6
:104380000895DF92EF92FF920F931F93CF93DF93E5
:10439000EC017B018A018C85843009F045C0D12C69
:1043A0008D2D0E94EB24811102C0DC8607C08B7F1B
:1043B0008831D9F3D39484E0D812F2CF8C8584303D
:1043C00099F120911602309117022F5F3F4F11F49F
:1043D00020E030EC30931702209316024091160231
:1043E0005091170220E061E00E943D25B7016E5F09
:1043F0007F4FA8018C850E949225811103C084E023
:104400008C8712C0CE010E94B921873151F061E042
:1044100070E080E090E00E945A2BCE010E94B9210A
:10442000ECCF81E090E002C080E090E0DF91CF919E
:104430001F910F91FF90EF90DF900895CF92DF9240
:10444000EF92FF92CF93DF93EC018C85843081F162
:104450000E94EB250E942B2B6B017C01CE010E9458
:10446000B921882359F00E942B2B6C197D098E09E4
:104470009F09683E73408105910598F0CE010E9426
:10448000B921882319F08C850E941225EC85F0E073
:10449000EE0FFF1FE65AF74F1182108284E08C87DF
:1044A00007C061E070E080E090E00E945A2BD6CF18
:1044B000DF91CF91FF90EF90DF90CF900895CF9351
:1044C000DF93EC018C858430D1F0CE010E94B921BC
:1044D0008431A9F0882399F0883189F08C3169F40E
:1044E000E881F9810480F581E02DCE01199521E064
:1044F000892B09F420E0822F03C081E001C080E015
:10450000DF91CF9108950F9300E020E040E060E05C
:1045100088E698E00E94B92F0F9108950F9300E06C
:1045200020E040E060E08EE698E00E94B92F0F9115
:104530000895DC01ED91FC91008CF18DE02D199432
:1045400028E534E0FC0131832083FB014189528955
:1045500063897489FC01428353836483758308955E
:10456000FC01858996890895FC01818D928D0895BD
:10457000CF93DF931F92CDB7DEB76983DC01ED9156
:10458000FC910280F381E02D41E050E0BE016F5FBD
:104590007F4F19950F90DF91CF910895CF93DF93BF
:1045A000EC01898D9A8D892B41F0E881F981068093
:1045B000F781E02DCE011995F4CFDF91CF910895C9
:1045C000CF93DF93EC018C85843061F00E9412253B
:1045D000EC85F0E0EE0FFF1FE65AF74F11821082D4
:1045E00084E08C87DF91CF910895FC01108E178AAB
:1045F0006E5F7F4F84850C94AD27FC0184850C94FD
:10460000F427CF93DF93EC019A018F89988DAB014A
:10461000BC018C850E9465272F89388D280F391F92
:10462000388F2F8BDF91CF9108950F931F93CF93E6
:10463000DF931F92CDB7DEB78C01FC01818D928D87
:10464000892B59F041E050E0BE016F5F7F4F8485B8
:104650000E94A826181619061CF08FEF9FEF08C0BD
:10466000F801818D928D0197928F818F898190E0E1
:104670000F90DF91CF911F910F910895CF93DF930A
:10468000EC01898D9A8D009719F48FEF9FEF10C080
:104690004817590708F0AC018C850E94A826181607
:1046A00019069CF7298D3A8D281B390B3A8F298FD3
:1046B000DF91CF910895CF93DF931F92CDB7DEB7EF
:1046C000FC01218D328D232B49F0BE016F5F7F4F9E
:1046D00084850E943427898190E002C08FEF9FEF8C
:1046E0000F90DF91CF910895FF920F931F93CF9377
:1046F000DF93EC018B018C858430E1F4F12C8F2D5C
:104700000E94EB24811102C0FC8606C08831E1F3CF
:10471000F39484E0F812F3CF8C85843059F01E872F
:104720000D871A8E198E20E0A80162E00E943D25B7
:1047300081E001C080E0DF91CF911F910F91FF9048
:1047400008950F931F93CF93DF93CDB7DEB72897CC
:104750000FB6F894DEBF0FBECDBF8C01DC01ED912A
:10476000FC910284F385E02D1995F80184850E945F
:1047700009271816190644F548E050E0BE016F5F9E
:104780007F4FD8011C968C910E94A82618161906F6
:10479000ECF4BE016F5F7F4FC8010F960E94C52FDA
:1047A0008D8190E0982F88272E81820F911DF8012E
:1047B000968B858B8F8190E0982F88272885820F94
:1047C000911D928F818F02C080E090E028960FB6F5
:1047D000F894DEBF0FBECDBFDF91CF911F910F9137
:1047E0000895FC011382128248EE53E060E070E00D
:1047F000448355836683778384E294E09183808346
:1048000084E08487CF010F960C94AF2FCF92DF9274
:10481000EF92FF920F931F93CF93DF93CDB7DEB745
:10482000AF970FB6F894DEBF0FBECDBF7C018B01F2
:104830006A01CE0101960E94AF2FCE0109960E9417
:10484000F123CE018A960E94AF2F62E578E0CE0177
:1048500084960E948B20BE016C5D7F4FCE01019635
:104860000E94DB1CAE01465D5F4FB801CE01019690
:104870000E943F1F81309105C1F4D701ED91FC9159
:104880000088F189E02D88E594E09DA38CA30CA518
:104890001DA52EA53FA50EA31FA328A739A7A601D6
:1048A000BE016C5D7F4FC7011995AF960FB6F894A6
:1048B000DEBF0FBECDBFDF91CF911F910F91FF9053
:1048C000EF90DF90CF9008950F9300E020E040E05C
:1048D00060E084E798E00E94B92F0F910895CF928D
:1048E000DF92EF92FF920F9330E0C12CF2E1DF2EC6
:1048F000FAE7EF2EF12C4C155D056E057F0540F4AF
:10490000F694E794D794C7943F5F3630A1F737E029
:1049100041E04327211102C050E701C050E5242F98
:1049200030E03595279523700C70202B252BFC014A
:104930002083417041830F91FF90EF90DF90CF90E3
:10494000089590E0982F882744E050E0845F9B4FC3
:104950000C94D628282F30E02C5F3F4F922F8827C9
:10496000860F971F0C94052962E070E00C94AA242E
:10497000FB01282F30E02C5F3F4F922F8827642FB8
:104980008E0F9F1F0C944B28CF93DF93C82FD62FE9
:10499000472F64E070E00E94B8244D2F65E070E07E
:1049A0008C2FDF91CF910C94B824462F62E070E0F9
:1049B0000C94B824CF93DF93C82FD62F472F60E1F4
:1049C00070E00E94B8244D2F61E170E08C2FDF91E0
:1049D000CF910C94B8240F931F93CF93DF9300D003
:1049E000CDB7DEB7182F00E021E040E059E06DE3DD
:1049F00070E0CE0101960E946F2489819A810E9405
:104A00006A0563E070E0812F0E94AA248B830E94D4
:104A1000D11F8B810F900F900F90DF91CF911F913D
:104A20000F9108950F931F93CF93DF931F921F92BF
:104A3000CDB7DEB7182F00E021E040E059E06DE38C
:104A400070E0CE0101960E946F2489819A810E94B4
:104A50006A0540E150E0612F8CE798E00E94D02A7F
:104A60006FEF812F0E94D5240E94D11F0F900F90CD
:104A7000DF91CF911F910F910895CF92DF92EF9226
:104A8000FF920F931F93CF93DF931F921F92CDB787
:104A9000DEB7182FD62E7A01C22E8FEF860F853003
:104AA000A8F5812F0E94122500E021E040E059E0A6
:104AB0006DE370E0CE0101960E946F2489819A8196
:104AC0000E946A054D2D4C2960E070E0812F0E9404
:104AD000B824E114F10411F0B7010AC060917A081A
:104AE00070917B086F5F7F4F70937B0860937A08AB
:104AF000812F0E94C42441E050E0612F8CE798E0B0
:104B00000E94D02A0E94D11F81E001C080E00F9056
:104B10000F90DF91CF911F910F91FF90EF90DF9059
:104B2000CF900895CF92DF92EF92FF920F931F9351
:104B3000CF93DF931F921F92CDB7DEB7182F7B0163
:104B40006A01FB0180818F3F51F481818F3F99F48D
:104B500082818F3F81F483818F3F69F430C081115E
:104B60000AC0FB018181811106C08281811103C0CD
:104B70008381882321F1C114D10409F100E021E0EF
:104B800040E059E06DE370E0CE0101960E946F2491
:104B900089819A810E946A05B701812F0E94A12410
:104BA000B601812F0E94DA2444E050E0612F8CE7A7
:104BB00098E00E94D02A0E94D11F81E001C080E0CD
:104BC0000F900F90DF91CF911F910F91FF90EF9079
:104BD000DF90CF9008950F931F93CF93DF931F9291
:104BE0001F92CDB7DEB7182F00E021E040E059E07A
:104BF0006DE370E0CE0101960E946F2489819A8155
:104C00000E946A0548E050E0612F8CE798E00E941E
:104C1000D02A0E94D11F0F900F90DF91CF911F914A
:104C20000F910895BF92CF92DF92EF92FF920F9370
:104C30001F93CF93DF9300D0CDB7DEB7B82E6B01B3
:104C40007A01413088E0580718F0E12C98E0F92EFD
:104C500000E021E040E059E06DE370E0CE01019614
:104C60000E946F2489819A810E946A056B2D8CE7CE
:104C700098E00E943D298C0163E070E08B2D0E943A
:104C8000AA248B830E94D11F8B81873111F08C3134
:104C900031F40E94E02A0E151F05D0F202C0E12C6B
:104CA000F12C00E021E040E059E06DE370E0CE013E
:104CB00001960E946F2489819A810E946A0597015A
:104CC000A6016B2D8CE798E00E94FC2940E250E0A1
:104CD0006B2D8CE798E00E94D02A8B2D0E94B42483
:104CE00084FD22C063E070E08B2D0E94AA24811114
:104CF00008C00E94D11F8B2D0E94122580E090E0F9
:104D00001AC00E94D11F0E94E02A00E021E040E08A
:104D100059E06DE370E0CE0101960E946F24898115
:104D20009A810E946A05D9CF60E18B2D0E94D5241B
:104D30000E94D11FC7010F900F900F90DF91CF916C
:104D40001F910F91FF90EF90DF90CF90BF9008954B
:104D5000AF92BF92CF92DF92EF92FF920F931F9389
:104D6000CF93DF931F921F92CDB7DEB7182F5B0151
:104D70006A0100E021E040E059E06DE370E0CE011F
:104D800001960E946F2489819A810E946A05612F91
:104D90008CE798E00E9471297C010097A1F463E000
:104DA00070E0812F0E94AA24843119F1882309F12F
:104DB00021E030E08C3111F420E030E0EE24FF24DB
:104DC000E21AF30A16C0C816D9060CF476011E14AE
:104DD0001F047CF400E09701A501612F8CE798E0A7
:104DE0000E94802A40E450E0612F8CE798E00E9406
:104DF000D02A0E94D11FC7010F900F90DF91CF9151
:104E00001F910F91FF90EF90DF90CF90BF90AF90E8
:104E100008950F931F93CF93DF9300D01F92CDB7C8
:104E2000DEB7182F00E021E040E059E06DE370E0CC
:104E3000CE0101960E946F2489819A810E946A05A1
:104E4000612F8CE798E00E9471298B839C830E94DC
:104E5000D11F8B819C810F900F900F900F90DF914D
:104E6000CF911F910F910895EF92FF920F931F938F
:104E7000CF93DF931F921F92CDB7DEB7182F7B0120
:104E800000E021E040E059E06DE370E0CE010196E2
:104E90000E946F2489819A810E946A0501E021E0C5
:104EA00030E0A701612F8CE798E00E94802A0E94E1
:104EB000D11F81E090E00F900F90DF91CF911F9173
:104EC0000F91FF90EF90089508959F92AF92BF9237
:104ED000CF92DF92EF92FF920F931F93CF93DF93C6
:104EE0001F921F92CDB7DEB7982E6B015A01790140
:104EF00000E021E040E059E06DE370E0CE01019672
:104F00000E946F2489819A810E946A05692D8CE72D
:104F100098E00E943D298E159F0530F4692D8CE79D
:104F200098E00E943D297C0187019501A601692D29
:104F30008CE798E00E948D290E94D11FC7010F9035
:104F40000F90DF91CF911F910F91FF90EF90DF9025
:104F5000CF90BF90AF909F900895CF92DF92EF9245
:104F6000FF920F931F93CF93DF931F921F92CDB7A2
:104F7000DEB7182F7B016A01FB018081811109C016
:104F80008181811106C08281811103C083818823C0
:104F9000F1F0C114D104D9F000E021E040E059E083
:104FA0006DE370E0CE0101960E946F2489819A81A1
:104FB0000E946A05B701812F0E94A124B601812FAA
:104FC0000E94DA240E94D11F81E090E002C080E0BC
:104FD00090E00F900F90DF91CF911F910F91FF9074
:104FE000EF90DF90CF9008950F931F93CF93DF93AF
:104FF0001F921F92CDB7DEB7182F00E021E040E0EE
:1050000059E06DE370E0CE0101960E946F24898122
:105010009A810E946A0540E250E0612F8CE798E097
:105020000E94D02A812F0E94B42484FD21C0812FA8
:105030000E94B42483FF09C068E1812F0E94D52417
:105040000E94D11F80E090E01BC00E94D11F0E94EF
:10505000E02A00E021E040E059E06DE370E0CE019D
:1050600001960E946F2489819A810E946A05DACF95
:1050700060E1812F0E94D5240E94D11F81E090E041
:105080000F900F90DF91CF911F910F9108952C9861
:1050900008952C9A08951F93CF93DF931F921F9228
:1050A000CDB7DEB7182F6A8399830E94472880EF17
:1050B0000E9484059981892F0E948405812F0E9476
:1050C00084056A81862F0E9484050E94492881E018
:1050D0000F900F90DF91CF911F910895CF93DF93A1
:1050E000EC016CE271E080E090E00E945A2B0E949B
:1050F000AB1C249A80914408882399F09FB7F894B8
:1051000080914408813059F48DB3809342082DB3C7
:1051100080914308809582238DBB9FBF02C09093EE
:10512000420880E58CBD1DBC60E880E090E00E94F4
:105130004B2865E58BE190E00E944B2865E58AE10C
:1051400090E00E944B2880914408882361F09FB72B
:10515000F8942091440880914208213019F48DBBC5
:105160009FBF01C08FBF80E090E49983888380E077
:1051700090E69987888780E098E49B838A8380E023
:1051800098E69B878A8780E090E59D838C8380E00A
:1051900090E79D878C8780E098E59F838E8380E0F1
:1051A00098E79F878E87DF91CF910895CF92DF9206
:1051B000EF92FF920F931F93CF93DF93EC017A014D
:1051C0008B016C01C40ED51ECC15DD05A1F00E942B
:1051D000472880EF0E9484058D2F0E9484058C2F24
:1051E0000E9484052196F80181918F010E94840517
:1051F0000E944928E9CFC701DF91CF911F910F91FC
:10520000FF90EF90DF90CF9008951F93CF93DF939F
:105210001F92CDB7DEB7182F99830E9447288FE0E1
:105220000E9484059981892F0E948405812F0E9404
:10523000840580E00E94840589830E944928898131
:105240000F90DF91CF911F9108951F93CF93DF931C
:10525000182F60E270E00E94AA24C82FD0E061E21B
:1052600070E0812F0E94AA24DC2FCC279E01282BDE
:10527000C901DF91CF911F910895FF920F931F9362
:10528000CF93DF93F62EC0E0D0E08F2D0E9425292A
:105290008C01009721F08F2D0E942529EC01C01769
:1052A000D10799F7CE01DF91CF911F910F91FF9018
:1052B00008951F93CF93DF93182F66E270E00E944A
:1052C000AA24C82FD0E067E270E0812F0E94AA24B0
:1052D000DC2FCC279E01282BC901DF91CF911F9194
:1052E0000895FF920F931F93CF93DF93F62EC0E0A4
:1052F000D0E08F2D0E9459298C01009721F08F2D2D
:105300000E945929EC01C017D10799F7CE01DF910E
:10531000CF911F910F91FF9008956F927F929F926E
:10532000AF92BF92CF92DF92EF92FF920F931F93B3
:10533000CF93DF931F92CDB7DEB7D82E962E3A01CA
:10534000590164E270E0892D99830E94AA24E82E15
:10535000F12C65E270E0892D0E94AA24FE2CEE2437
:10536000E82AE60CF71C970137706D2C9981792E8D
:10537000690C711C690C711CD301ED91FC91E20F59
:10538000F31FC901800F911F81309840A0F0C12CFC
:1053900048E0D42EC21AD30AA601B501CF010E945B
:1053A000D628A8014C195D09B5016C0D7D1DF301CE
:1053B0008081918103C0A801B501CF010E94D62848
:1053C000E00EF11E4F2D64E270E0892D0E94B8249A
:1053D0004E2D65E270E0892D0F90DF91CF911F91E6
:1053E0000F91FF90EF90DF90CF90BF90AF909F9084
:1053F0007F906F900C94B8240F931F9389019A01AA
:1054000040E050E00E948D291F910F910895CF92A6
:10541000DF92EF92FF920F931F93CF93DF93EC01F4
:105420007A018B016C01C40ED51ECC15DD05A9F0E7
:105430000E9447288FE00E9484058D2F0E948405DA
:105440008C2F0E948405219680E00E948405F8013B
:1054500081938F010E944928E8CFC701DF91CF9146
:105460001F910F91FF90EF90DF90CF900895AF9232
:10547000BF92CF92DF92EF92FF920F931F93CF9341
:10548000DF931F921F92CDB7DEB75A83498359012C
:10549000E981FA81F7707C01E60EF11CE60EF11C41
:1054A000D70118968D919C9119978E0F9F1F980187
:1054B0002E0F3F1F2130384098F0C12C68E0D62EC7
:1054C000CE1ADF0AA601B5010E94072AA8014C19CD
:1054D0005D09B5016C0D7D1DF7018085918502C0C8
:1054E000A801B5010F900F90DF91CF911F910F91FF
:1054F000FF90EF90DF90CF90BF90AF900C94072A71
:105500008F929F92AF92BF92CF92DF92EF92FF92D3
:105510000F931F93CF93DF936C01962E5A0179015D
:10552000802E68E270E0892D0E94AA24C82FD0E066
:1055300069E270E0892D0E94AA24DC2FCC27C82BB9
:1055400087019501AE01692DC6010E94372A81109D
:105550001AC0CE0DDF1D4D2F68E270E0892D0E942C
:10556000B8244C2F69E270E0892DDF91CF911F9113
:105570000F91FF90EF90DF90CF90BF90AF909F90F2
:105580008F900C94B824DF91CF911F910F91FF90D1
:10559000EF90DF90CF90BF90AF909F908F90089545
:1055A000CF93C62F61E070E08C2F0E94B82461E099
:1055B00070E08C2F0E94AA248111F9CFCF91089519
:1055C00008951F920F920FB60F9211242F933F93BD
:1055D0008F939F93AF93BF9380918D0890918E0886
:1055E000A0918F08B091900830918C0823E0230F90
:1055F0002D3720F40196A11DB11D05C026E8230F0B
:105600000296A11DB11D20938C0880938D08909364
:105610008E08A0938F08B093900880919108909184
:105620009208A0919308B09194080196A11DB11D14
:105630008093910890939208A0939308B093940854
:10564000BF91AF919F918F913F912F910F900FBE7E
:105650000F901F9018952FB7F89460918D08709156
:105660008E0880918F08909190082FBF08953FB7C2
:10567000F8948091910890919208A0919308B0912C
:10568000940826B5A89B05C02F3F19F00196A11DCF
:10569000B11D3FBF6627782F892F9A2F620F711D8A
:1056A000811D911D42E0660F771F881F991F4A9543
:1056B000D1F70895CF92DF92EF92FF92CF93DF93CD
:1056C0006B017C010E94372BEB01C114D104E10472
:1056D000F10489F00E94E02A0E94372B6C1B7D0B9D
:1056E000683E734090F381E0C81AD108E108F108E0
:1056F000C851DC4FEACFDF91CF91FF90EF90DF9060
:10570000CF900895789484B5826084BD84B581601B
:1057100084BD85B5826085BD85B5816085BDEEE6B9
:10572000F0E0808181608083E1E8F0E01082808198
:1057300082608083808181608083E0E8F0E0808106
:1057400081608083E1EBF0E0808184608083E0EB26
:10575000F0E0808181608083E1E9F0E08081826017
:105760008083808181608083E0E9F0E080818160D6
:105770008083E1EAF0E080818260808380818160C3
:105780008083E0EAF0E0808181608083E1E2F1E003
:10579000808182608083808181608083E0E2F1E0AB
:1057A000808181608083EAE7F0E08081846080838B
:1057B0008081826080838081816080838081806835
:1057C00080831092C100089590E0FC013197E2318E
:1057D000F10508F04CC0EE58FF4F0C94D032809188
:1057E00080008F7703C0809180008F7D8093800040
:1057F000089580918000877FF9CF84B58F7702C0AC
:1058000084B58F7D84BD08958091B0008F7703C0EB
:105810008091B0008F7D8093B000089580919000BA
:105820008F7707C0809190008F7D03C0809190009A
:10583000877F8093900008958091A0008F7707C0A4
:105840008091A0008F7D03C08091A000877F80930E
:10585000A0000895809120018F7707C080912001DA
:105860008F7D03C080912001877F80932001089560
:10587000CF93DF9390E0FC01E657FB4F2491FC01AE
:10588000E053FB4F8491882349F190E0880F991FE2
:10589000FC01E65BFA4FA591B491805D9A4FFC0143
:1058A000C591D4919FB7611108C0F8948C9120954F
:1058B00082238C93888182230AC0623051F4F89449
:1058C0008C91322F309583238C938881822B88830F
:1058D00004C0F8948C91822B8C939FBFDF91CF9161
:1058E00008950F931F93CF93DF931F92CDB7DEB729
:1058F000282F30E0F901EC5BFB4F8491F901E6576A
:10590000FB4F1491F901E053FB4F04910023C9F0C0
:10591000882321F069830E94E42B6981E02FF0E065
:10592000EE0FFF1FE05DFA4FA591B4919FB7F89479
:105930008C91611103C01095812301C0812B8C9340
:105940009FBF0F90DF91CF911F910F910895FC01A0
:10595000818D228D90E0805C9F4F821B91098F7317
:1059600099270895FC01918D828D981731F0828DD1
:10597000E80FF11D858D90E008958FEF9FEF08955A
:10598000FC01918D828D981761F0828DDF01A80F47
:10599000B11D5D968C91928D9F5F9F73928F90E069
:1059A00008958FEF9FEF08958BE79EE2892B41F0DA
:1059B00080E090E0892B21F00E947B2E811125C090
:1059C00088E29FE2892B41F080E090E0892B21F072
:1059D0000E94282F81111CC080E090E0892B41F0AB
:1059E00080E090E0892B21F00E940000811113C01B
:1059F00080E090E0892BA1F080E090E0892B81F09D
:105A00000E94000081110AC008950E940000D8CFB2
:105A10000E940000E1CF0E940000EACF0C94000039
:105A20000895FC01848DDF01A80FB11DA35ABF4F5B
:105A30002C91848D90E001968F739927848FA6898D
:105A4000B7892C93A089B1898C9180648C93938DB4
:105A5000848D981306C00288F389E02D80818F7DA4
:105A600080830895CF93DF93EC01888D8823C9F05C
:105A7000EA89FB89808185FD05C0A889B9898C9157
:105A800086FD0FC00FB607FCF5CF808185FFF2CFF2
:105A9000A889B9898C9185FFEDCFCE010E94112D87
:105AA000E7CFDF91CF910895CF92DF92FF920F93CE
:105AB0001F93CF93DF931F92CDB7DEB76C01DC014C
:105AC0005B969C915B975C968C915C97981307C052
:105AD0005096ED91FC915197808185FD32C0F60181
